:1080000082008A6882008B1D82008B1182008B1E89
:1080100082008B1F82008B2082008B2182008B22AA
:1080200082008B2382008B2482008B2582008B268A
:1080300082008B2782008B2882008B2982008B2A6A
:1080400082008B2B82008B2C82008B2D82008B2E4A
:1080500082008B2F820088D882008B3082008801BA
:1080600082008B318200877282008B3282008B33D8
:1080700082008B3482008B3582008B3682008B37F6
:10808000CD8293B704AE0004CD827F72BB0002BFE5
:108090000292BC00014504013301B401AE0004CDDD
:1080A000827F72BB0002BF0292BD0001B600A480B5
:1080B000A1002747B600A410A100270C92BC000520
:1080C000BA0492BD0005200F450401330192BC00A3
:1080D00005B40192BD0005AE0002CD827F72BB00E7
:1080E00002BF0292BC0001BA04AE0002CD827F72D0
:1080F000BB0002BF0292BD00012027AE0002CD826C
:108100007F72BB0002BF0292BC0001450401330133
:10811000B401AE0002CD827F72BB0002BF0292BDED
:108120000001B600A440A1002724AE0003CD827F49
:1081300072BB0002BF0292BC0001BA04AE0003CDC4
:10814000827F72BB0002BF0292BD00012027AE00F9
:1081500003CD827F72BB0002BF0292BC00014504C6
:10816000013301B401AE0003CD827F72BB0002BFB8
:108170000292BD0001B600A420A1002724AE000495
:10818000CD827F72BB0002BF0292BC0001BA04AE76
:108190000004CD827F72BB0002BF0292BD000120AD
:1081A00027AE0004CD827F72BB0002BF0292BC00EA
:1081B000014504013301B401AE0004CD827F72BBDE
:1081C0000002BF0292BD00018188A6082000887BC2
:1081D00002887B02891E061F045F97FE1F068584A6
:1081E00081891E05BF0820001E031F05855B0281D3
:1081F000887B03887B03887B0388B60D6B04B60EEF
:108200006B05B60F6B068481887B04B70D7B05B7C1
:108210000E7B06B70F2000846B03846B03846B0313
:10822000848188A600200A88A604200588A6082044
:108230000088897B04887B04891E081F045F971FC0
:1082400008FE1F061E085C5CFE1F08858481891ECF
:1082500005BF001E07BF022016891E05BF041E07AA
:10826000BF06200B891E05BF081E07BF0A20001E7F
:10827000031F07855B0481CD826481CD81E1814547
:10828000050145060245070381450901450A0245E6
:108290000B03814501054502064503078145010998
:1082A00045020A45030B8145010D45020E45030FAA
:1082B00081B7023F01B602A4F0B7013D0126393D66
:1082C00000271AB602A40F5F5CCD894A41B703416B
:1082D000BC0050C3BA03BD0050C3CC836CB602A42B
:1082E0000F5F5CCD894A41B703413303BC0050C3E3
:1082F000B403BD0050C32074B601A11026383D0060
:108300002719B602A40F5F5CCD894A41B70341BC6F
:108310000050C4BA03BD0050C42051B602A40F5F80
:108320005CCD894A41B703413303BC0050C4B40358
:10833000BD0050C420363D002719B602A40F5F5C73
:10834000CD894A41B70341BC0050D0BA03BD0050AB
:10835000D02019B602A40F5F5CCD894A41B7034112
:108360003303BC0050D0B403BD0050D081CD81C9CF
:10837000B7093F00A6043500000135500002350F53
:108380000003CD89523F00A608350000013550009A
:1083900002350F0003CD89523F08B608A1082463B7
:1083A000B609A401A100271735010000A601350078
:1083B00000013550000235050003CD895220133FDE
:1083C00000A601350000013550000235050003CD3F
:1083D000895235010000A604350000013550000225
:1083E000350F0003CD89523F00A60435000001354A
:1083F000500002350F0003CD8952B60944B7093C3D
:10840000082097CC827BCD81F0CD81C9CD82A79207
:10841000BC000DA10026743F093F08BE08A300025E
:108420002E69AE0006BF00BE08CD892C1C008DF65B
:10843000AE0006BF00BE08CD892CD7008CAE00066A
:10844000BF00BE08CD892C1C008EFEFDAE0006BF0D
:1084500000BE08CD892C1C008DF71D008DAE0006D6
:10846000BF00BE08CD892C1C008D7D2717AE0006ED
:10847000BF00BE08CD892C4FD1008C2607B6094C11
:1084800092BD000DBE085CBF082090CD81E1CD8279
:1084900008810000003C180000000000667E3C18C7
:1084A00000000066FFFF7E3C18000066FFFF7E3C78
:1084B00018000000667E3C180000001824242424C4
:1084C00018000018381818183C0000182404081068
:1084D0003C00001824041804241800081838283C0C
:1084E0000800003C203804241800001824382424F4
:1084F0001800003C04081010100000182418242450
:108500001800001824241C2418000000400100005A
:108510000000000000000000000000009BA604CD49
:108520008B024FCD8B0735010000A611CD82B135EE
:108530000100004FCD82B135010000A601CD82B10E
:108540003F0090AE27104FAE013FCD882C5F5CCD31
:108550008AB035010000A601CD89749AA601CD89A3
:10856000E5AE00643F00A606CD87A75F5CCD8ABF5D
:1085700035010000A601CD89969AA601CD8A02AEEA
:1085800009C43F00A606CD87D45F5CCD8ACC3501F7
:108590000000A601CD89B89AA601CD8A1FCD86F329
:1085A000CD861E81CD851CC60098905F9097AE0049
:1085B00008BF0093CD892C1C00103F01BF02AE0004
:1085C00088CD891EC600994D27DDC600994A27052A
:1085D0004A27232043C6008B4D2704725A008BC6BE
:1085E000008B5F9790AE03E890BF00CD892C1C13E1
:1085F00088CD8AD92022C6008BA1092404725C0090
:108600008BC6008B5F9790AE03E890BF00CD892C9E
:108610001C1388CD8AD92000725F009920893540CB
:108620000000A6103500000135500002350000039F
:10863000CD808035400000A6203500000135500077
:108640000235000003CD8080905F90A300022E2FA2
:10865000AE0006BF0093CD892CA601D7008CAE00DA
:1086600006BF0093CD892CBF02AE0006BF0093CD9C
:10867000892CD6008CBE021C008DF7905C20CBAEFE
:108680008A7BCF008EAE8A8DCF009481CD822C3B29
:10869000000CCD829DA67FB7083F0CB60CA1082424
:1086A0004CB608CD836D5FB60C97CD828972BB0046
:1086B00002BF0292BC0001CD836D35010000A60807
:1086C0003500000135500002350F0003CD89523FBF
:1086D00000A6083500000135500002350F0003CD1B
:1086E0008952B60844AA80B7083C0C20AE32000C70
:1086F000CC827735C00000A604350000013550005B
:1087000002350F0003CD808035C00000A60835007B
:10871000000135500002350F0003CD808035C000C8
:1087200000A601350000013550000235050003CDDB
:10873000808081BF0292CE02BF00BE025C5CBF029D
:10874000BE002603BE0281BE02CD89101C0003FEBE
:108750009093BE021C0005BF0292BC000590F75F1B
:108760005C72BB0006BF06905CBE005ABF0027C506
:1087700020E78A84A4BF8886CD8222CD8227A601E5
:10878000CD8857A1012614725C009855009800000E
:10879000A6055F01B6000262C70098A601CD8AE473
:1087A000CD8259CD824E80B7019EBD00525F9FBDE4
:1087B000005260B601BD00525EBC005250A48FBD95
:1087C000005250BC005250BA00BD005250A601BD2C
:1087D00000525881B7019EBD00528F9FBD0052903C
:1087E000B601BD00528EBC005280A48FBD005280E5
:1087F000BC005280BA00BD005280A601BD00528864
:10880000818A84A4BF8886CD8222CD8227A601CD0D
:1088100088ADA101260AAE00993F01BF02CD8406B2
:10882000A601CD8AF8CD8259CD824E80B701909EA7
:10883000BD0052C3909FBD0052C49EBD0052C19F57
:10884000BD0052C2BC0052B0A48FBA01BD0052B0EC
:10885000B600BD0052C581B7033F023F013F00BCD7
:108860000052B6B403B701BC0052B5B403B7003D23
:1088700001270A3D002706A601B70220023F02B6E3
:108880000281B7033F023F013F00BC005256B403D0
:10889000B701BC005255B403B7003D01270A3D00A3
:1088A0002706A601B70220023F02B60281B7033FA6
:1088B000023F013F00BC005286B403B701BC005226
:1088C00085B403B7003D01270A3D002706A601B77E
:1088D0000220023F02B602818A84A4BF8886CD822C
:1088E00022CD8227A601CD8882A1012609AE00886B
:1088F000CD8902CD868CA601CD8AEECD8259CD825E
:108900004E8088F6B701E601B702E602B70384811C
:1089100088F6B705E601B706E602B707848188B690
:1089200001F7B602E701B603E702848188895EB6E3
:108930000142891E03B6004272FB014F02891E05E7
:10894000B6014272FB015B0684814D2704584A261A
:10895000FC81B7043D00270C92BC0001BA0492BD13
:108960000001200F450405330592BC0001B40592B7
:10897000BD000181B7013D00270CBC0052B5BA0112
:10898000BD0052B5200F4501023302BC0052B5B400
:1089900002BD0052B581B7013D00270CBC00525505
:1089A000BA01BD005255200F4501023302BC0052EE
:1089B00055B402BD00525581B7013D00270CBC00E3
:1089C0005285BA01BD005285200F4501023302BC19
:1089D000005285B402BD005285818733008A00842D
:1089E0009200100000B7003D00270CBC0052B0AA56
:1089F00001BD0052B0200ABC0052B0A4FEBD00521E
:108A0000B081B7003D00270CBC005250AA01BD0048
:108A10005250200ABC005250A4FEBD00525081B7F3
:108A2000003D00270CBC005280AA01BD00528020EE
:108A30000ABC005280A4FEBD00528081CD81C95283
:108A400002BF08BE081F01965C3F01BF02A601CD10
:108A50008B3820EFAE89DA20065C5C90FE90FD90AA
:108A60009390A389E526F281AE07FF94CD8B145D28
:108A70002703CD8A54CD85A4CC8B17A610350000D2
:108A8000013550000235000003CD8A9F81A62035B4
:108A90000000013550000235000003CD8A9F81B7E8
:108AA000005F5C72BB0002BF0292BC0001B4008197
:108AB0009F43BD0052B69E43A41EBD0052B7819F86
:108AC00043BD0052569E43BD005257819F43BD0097
:108AD00052869E43BD005287819EBD0052C39FBDFA
:108AE0000052C481B700B60043BD0052B681B70042
:108AF000B60043BD00525681B700B60043BD0052D8
:108B00008681BD0050C881BD0050C0818985CD8A55
:108B10003CCC8B1A5F5C81CC8B0C9D20FD808080CF
:108B20008080808080808080808080808080808045
:098B3000808080808080808081BB
:0400000500008A6805
:00000001FF
