:100F780075A15575A1AA53B9BF43B98075A1557517
:0E0F8800A1AAE5B954F84406F5B9E4F5A12292
:100FCA00EF7802CEC313CE13D8F9FFEF4E600905AE
:090FDA00A1EF1F70F61E80F32246
:100FE300AD07AC06ED4C600E7FE87E03120FCAED31
:070FF3001D70F11C80EE22CD
:0410670043C610224A
:100CE600C29FD29EC29DC2CDC2CC438780E47513FB
:100CF60086751201F511F5107B0AFAF9F8AF13AEF5
:100D060012AD11AC101206B2AF038F14AF13AE12B0
:100D1600AD11AC10E47B0AFAF9F81206B28F138E05
:100D2600128D118C10E514C394054011EF2401F5C2
:100D360013E43EF512E43DF511E43CF510E5895463
:100D46000F4420F58943C9A0E513F404F58DD28E2E
:040D5600D299D29CC0
:010D5A002276
:080003003098FDC298AF99226C
:08104F008F993099FDC299222E
:0A103B00C2C7D2C5D2C475C2D922C3
:0810570030C0FDC2C0AFC12290
:08105F008FC130C1FDD2C12296
:100FFA0075A15575A1AAEF600543B101800353B1EC
:07100A00FEE4F5A1F5FF2251
:03106B008FFF22D2
:0A10450075A15575A1AA43B1102250
:0E003300ABE243E2B07F017E00120FE38BE2EE
:01004100229C
:1008D00005010906A101050719E029E71500250111
:1008E00075019508810295017508810195037501CF
:1008F00005081901290391029505750191019506D5
:10090000750826FF000507190029918100C0050C14
:100910000901A101150025010AEA000AE9000AE21D
:10092000000A8A010A83010A23020ACD000AB600DE
:100930000AB5000AB7000A00000A00000A00000A0F
:1009400000000A00000A00000A00000A00000A0075
:10095000000A00000A00000A00000A00000A112232
:100960007501951881020501190029831500258359
:10097000750895018100C012011001000000083DBA
:10098000413A5500000000000109023B000201014C
:10099000A064090400000103010100092111010004
:1009A00001223E000705810308000A090401000135
:1009B00003000000092100010001226900070582EF
:0409C0000304000A22
:100D5B0008440000000000000000045D00000000DB
:100ED100C2EAE4F5E275ED0075EC0075EF0075EE20
:100EE1000A75E50075E45075EA67E5EB54FE4404C4
:100EF100F5EB75DC0275D24275D412E4F5E375D1D8
:100F01008075E22943D10175D8FF75E10775A1010B
:080F110043A980F5A1D2EA22F8
:100F9600780A7C007D017B007A0079447E007F0818
:0A0FA60012065075D30853D2FC2246
:100FB00078507C007D017B007A00795D7E007F04A3
:0A0FC00012065075D50453D4FC222C
:0300430002004672
:0D004600C0E0C0F0C083C082C0D075D008FB
:1000530020D90302032FE5D9543F7003020314246C
:10006300E070030202BF14601824F16025240E60BF
:100073000302032D75D500E5D454FC4402F5D48066
:100083000B75D300E5D254FC4402F5D2754E010240
:10009300032D85DB15E5156408600302029A9000C1
:1000A30006E0F550A3E07007E550D3947F40037555
:1000B300507F751500900001E0F551900000E05469
:1000C300606018E5511424FD400302029D24FB24C3
:1000D300FD400302029D800002029AE551B40B0029
:1000E30040030202989000EFF8282873020280026E
:1000F30001D002029802020A0202980201A8020138
:10010300100202980201B10201C702029D9000038E
:10011300E024FE601624E0602024217046755AFF17
:10012300755B09755C77751512803B755AFF755BB6
:1001330009755C8975153B802D900004E0FF700CF8
:10014300755AFF755B08755CD075153EEFB40111E8
:10015300755AFF755B09755C0E75156975610180CC
:100163000580007515FFE550D3951540038515509F
:10017300E550C3940840047F088002AF508F157E7A
:100183000078007C007D01AB5AAA5BA95C12065083
:10019300C3E5509515F550E515255CF55CE4355B35
:1001A300F55B02029D900002E0F55002029D900073
:1001B30000E54CF0E550C39401500302029D751510
:1001C3000102029D900002E0F54C02029D900000A6
:1001D300E0541F6402702D900004E014601D24801D
:1001E300600E14701CE5D454BC4402F5D402029D85
:1001F300E5D254BC4402F5D202029D53D2730202EB
:100203009D02029A02029A900000E0541FFD701BA7
:10021300900003E0FE900002E0FBEB64014E7009E6
:100223009009909320E573806E806CED6402704BAF
:10023300900003E0FE900002E0FDED4E703B900065
:1002430005E0FE900004E0FDEDFFEE702AEF24FED2
:1002530060112481601714701EE5D454BF4403F564
:10026300D48037E5D4547F440CF5D4802DE5D254A3
:10027300BF4403F5D28023801E801C801A900000A7
:10028300E4F0A3F0E550C394024005751502800A1B
:10029300855015800580007515FFE515B4FF0975B8
:1002A30051FF75DCCF02032DE515D3940850058566
:1002B30015DD800375DD0075DCC0806EE55124FB20
:1002C300603D147044E550C3940840047F088002E5
:1002D300AF508F157E0078007C007D01AB5AAA5B7E
:1002E300A95C120650C3E5509515F550E515255C3C
:1002F300F55CE4355BF55B8515DD63DC40802BE560
:10030300E354804550F5E3800375DD0075DC02801E
:100313001985DB15E551B4090BE515B40106900009
:1003230000E0F54F75DD0075DC00C2D930D81275D9
:10033300DC0275D21075D41275E300C2DAC2D9C2D9
:0B034300D830DA04C2DA800375D8FF5E
:0B034E00D0D0D082D083D0F0D0E032BD
:10000E00C28CE4F54E120F96E54E60FCE4F54EFE02
:10001E007F08FDFB7A00794412074A120F96E54ECF
:05002E0060FCD28C22F1
:100F5300C28CE4F54E120FB0E54E60FCE4F54EFE94
:100F63007F04FDFB7A00795D12074A120FB0E54E4C
:050F730060FCD28C229D
:100D6B000440010000014800900101010101010153
:100D7B00014800A4010101010101010141009E0094
:100D8B004300980000C843009F02020243009B00EF
:100D9B0000004100A3004100A2001C21FF0A9100AA
:100DAB00010000FF0E7D00020000FF0E2600030075
:080DBB0000FF004200320000BD
:10101100E58954F14401F589758CB1758ADFC28D7A
:05102100D2A9D28C22CF
:1009C400900097E09000ABF0A2B0E433900097F071
:1009D400E070149000ABE0600E90009E30B105749E
:1009E40015F080037416F0E490004DF090004DE093
:1009F400FF2490F582E43400F583E0FE74A42FF51F
:100A040082E43400F583EEF090004DE004F0E0B4AD
:100A140007DAA2B2E433900090F0A294E433A3F096
:100A2400A295E433A3F0A296E433A3F0A297E433AF
:100A3400A3F0A291E433A3F0A2B3E433A3F0E490CF
:100A4400004DF090004DE0FFC39407502B74902F9D
:100A5400F582E43400F583E0601690004DE024A4B0
:100A6400F582E43400F583E07006EF0490009EF014
:100A740090004DE004F080CB90009EE0FFD3940002
:0C0A8400400AEF940750059000A3EFF02B
:010A90002243
:100B3E008F1690009EE024EB7003020BC914700315
:100B4E00020BD42415B407004003020BE1900B698D
:100B5E0075F003A4C58325F0C58373020B7E020BCB
:100B6E0087020B92020B9D020BA8020BB3020BBE67
:100B7E00755D80E56160598054755D40E561600288
:100B8E00804B804C755E01E561600280408041754E
:100B9E005D10E561600280358036755D20E561602F
:100BAE0002802A802B756082E5616002801F8020A2
:100BBE00755D04E561600280148015755D02E56166
:100BCE0060028009800A755D01E5616003020F53C2
:040BDE00120ED12200
:03035900E4FFFEC0
:10035C00EF4E600302046890004EF090004DF09058
:10036C00004EE0FD30E718D2B400000000000000A1
:10037C000000000000000000000000C2B48016D293
:10038C00B400000000000000C2B400000000000037
:10039C00000000000000000000000000ED25E090CF
:1003AC00004EF090004DE004F0E0B408B2E4900090
:1003BC004EF090004DF090004EE0FD30E718D2B4B6
:1003CC000000000000000000000000000000000021
:1003DC000000C2B48016D2B400000000000000C2BD
:1003EC00B40000000000000000000000000000004D
:1003FC00000000ED25E090004EF090004DE004F080
:10040C00E0B408B2E490004EF090004DF090004E35
:10041C00E0FD30E718D2B40000000000000000003E
:10042C00000000000000000000C2B48016D2B4002E
:10043C00000000000000C2B400000000000000003A
:10044C0000000000000000000000ED25E090004ED0
:10045C00F090004DE004F0E0B408B2228F828E835D
:10046C00A3E090004EF0E490004DF090004EE0FDC3
:10047C0030E718D2B40000000000000000000000BB
:10048C0000000000000000C2B48016D2B4000000CE
:10049C0000000000C2B400000000000000000000DA
:1004AC000000000000000000ED25E090004EF090F0
:1004BC00004DE004F0E0B408B28F828E83E090002F
:1004CC004EF0E490004DF090004EE0FD30E718D275
:1004DC00B40000000000000000000000000000005C
:1004EC00000000C2B48016D2B4000000000000006E
:1004FC00C2B400000000000000000000000000007A
:10050C0000000000ED25E090004EF090004DE0045E
:10051C00F0E0B408B28F828E83A3A3E090004EF07B
:10052C00E490004DF090004EE0FF30E718D2B4009C
:10053C0000000000000000000000000000000000AF
:10054C0000C2B48016D2B400000000000000C2B497
:10055C00000000000000000000000000000000008F
:10056C000000EF25E090004EF090004DE004F0E02C
:03057C00B408B20E
:01057F002259
:040F1900AB07AA0672
:100F1D00E490004CF090004CE0FFC394065026EF97
:100F2D002401FFE433FE9000A3E0B5070AE4B50603
:100F3D0006AF03AE028003E4FFFE12035C90004C8B
:050F4D00E004F080D07B
:010F5200227C
:10102600E490004FF012035990004FE004F0E0C343
:04103600940640F1EB
:01103A002293
:10077600120F787FE87E03120FE3121011120ED1CA
:10078600D2AFE4F5D3F5D5F54EF561754F01758712
:1007960001D2B2D294D295D296D297D291D2B3C286
:1007A600B4D2B1D2B07E007F9812035C120359E432
:1007B600FF12035CE4FF12035CE4FF12035CE4FF38
:1007C60012035C7F207E03120FE3E4FFFE12035C3C
:1007D6007E007F9812035CE4FFFE12035CE4FF12C6
:1007E600035CE4FF12035CE4FF12035C7F207E03DC
:1007F600120FE3E4FFFE12035CE4FF12035C7E00CB
:100806007F9812035CE4FFFE12035CE4FF12035CB4
:10081600E4FF12035C7F207E03120FE3E4FFFE1267
:10082600035CE4FF12035CE4FF12035C7E007F9826
:1008360012035CE4FFFE12035CE4FF12035C7F20FC
:100846007E03120FE3E4FFFE12035CE4FF12035C77
:10085600E4FF12035CE4FF12035C7E007F98120340
:100866005CE4FFFE12035C7F207E03120FE3E4FFCD
:10087600FE12035CE4FF12035CE4FF12035CE4FF78
:1008860012035CE4FF12035C7E007F9812035C7F18
:10089600207E03120FE3E4FFFE12035CE4FF120363
:1008A6005CE4FF12035CE4FF12035CE4FF12035CEA
:1008B600E4FF12035C7F207E03120FE3E490009AAC
:0A08C600F0900099F0900098F022E5
:100A910090009EE0FF7003020B3D120B3EE49000BC
:100AA1009EF09000A2E014601714601F14602914D6
:100AB10060342404704390009B74C8F0E4A3800860
:100AC100E490009BF0A374C8F0800AE490009BF0CE
:100AD100A374C8F0E4A3801890009B74C8F0E4A349
:100AE100F0A374C8800AE490009BF0A3F0A374C83B
:100AF100F09000A2E004F0800F90009B74C8F0A376
:100B0100F0E4A3F09000A2F090009BE075F0058462
:100B110090009FF090009CE075F005849000A0F09B
:100B210090009DE075F005849000A1F0E490009A9A
:0D0B3100F0900099F0900098F075410122BD
:100E7D0090009FE0FF900098E02FF09000A0E0FF21
:100E8D00900099E02FF09000A1E0FF90009AE02FE4
:100E9D00F07E007F98120F1990009BE0FF90009854
:100EAD00E0C39F401E90009CE0FF900099E09F40A2
:100EBD001290009DE0FF90009AE09F4006E4F541FE
:040ECD007542012247
:100E2600900098E0FF600C90009FE0FEC3EF9E905C
:100E36000098F0900099E0FF600C9000A0E0FEC3DF
:100E4600EF9E900099F090009AE0FF600C9000A150
:100E5600E0FEC3EF9E90009AF07E007F98120F1975
:100E6600900098E07010A3E0700CA3E07008F541C4
:070E7600F5429000A3F022F9
:01004200229B
:100C6E001207761209C4E4F53D7440253DF8E6609E
:100C7E004EE53D75F007A42426F8E6FE08E6FFC310
:100C8E00E53F9FFFE53E9EFEE53D75F007A424245B
:100C9E00F8E6FC08E6FDD3EF9DEE9C4030E53D7591
:100CAE00F007A42426F8A63E08A63FE53D75F007FA
:100CBE00A42421F808E6FA08E6F9120744800EE5A6
:100CCE003D75F007A42426F8A63E08A63F053DE58F
:080CDE003DC394044093808B98
:03000B00020DC41F
:100DC400C0E0C0F0C083C082C0D075D008053FE544
:100DD4003F7002053ED3E53F94A0E53E940F4031B9
:100DE400753E00753F00E5617003120ED1753D003C
:100DF400E53D75F007A42426F87600087600053D45
:100E0400E53DB404EB75400175410075420075433E
:100E140001758CB1758ADFD0D0D082D083D0F0D068
:020E2400E032BA
:03000000020BE20E
:0C0BE200787FE4F6D8FD758161020C29D3
:10058000E709F608DFFA8046E709F208DFFA803E5D
:1005900088828C83E709F0A3DFFA8032E309F6084A
:1005A000DFFA8078E309F208DFFA807088828C83B2
:1005B000E309F0A3DFFA806489828A83E0A3F60866
:1005C000DFFA805889828A83E0A3F208DFFA804C40
:1005D00080D280FA80C680D4806980F28033801017
:1005E00080A680EA809A80A880DA80E280CA803380
:1005F00089828A83ECFAE493A3C8C582C8CCC583F8
:10060000CCF0A3C8C582C8CCC583CCDFE9DEE780C7
:100610000D89828A83E493A3F608DFF9ECFAA9F046
:10062000EDFB2289828A83ECFAE0A3C8C582C8CC9C
:10063000C583CCF0A3C8C582C8CCC583CCDFEADEB5
:10064000E880DB89828A83E493A3F208DFF980CC17
:1006500088F0EF60010E4E60C388F0ED2402B40410
:100660000050B9F582EB2402B4040050AF232345B7
:0606700082239005D07307
:1006760075F008758200EF2FFFEE33FECD33CDCC3B
:1006860033CCC58233C5829BED9AEC99E5829840BE
:100696000CF582EE9BFEED9AFDEC99FC0FD5F0D69B
:1006A600E4CEFBE4CDFAE4CCF9A88222B800C1B9C5
:1006B6000059BA002DEC8BF084CFCECDFCE5F0CB03
:1006C600F97818EF2FFFEE33FEED33FDEC33FCEB3C
:1006D60033FB10D703994004EB99FB0FD8E5E4F9F7
:1006E600FA227818EF2FFFEE33FEED33FDEC33FCE4
:1006F600C933C910D7059BE99A4007EC9BFCE99AD8
:10070600F90FD8E0E4C9FAE4CCFB2275F010EF2F1C
:10071600FFEE33FEED33FDCC33CCC833C810D7071C
:100726009BEC9AE899400AED9BFDEC9AFCE899F857
:0E0736000FD5F0DAE4CDFBE4CCFAE4C8F922EA
:060744008A838982E47340
:10074A00EF4E6012EF60010EEDBB010B89828A83C6
:10075A00F0A3DFFCDEFA2289F05007F709DFFCA9D3
:0C076A00F022BBFEFCF309DFFCA9F0222A
:100BEE00020C6EE493A3F8E493A34003F68001F2A3
:100BFE0008DFF48029E493A3F85407240CC8C33308
:100C0E00C4540F4420C8834004F456800146F6DFD6
:100C1E00E4800B0102040810204080900D5BE47EFE
:100C2E00019360BCA3FF543F30E509541FFEE493CB
:100C3E00A360010ECF54C025E060A840B8E493A392
:100C4E00FAE493A3F8E493A3C8C582C8CAC583CABD
:100C5E00F0A3C8C582C8CAC583CADFE9DEE780BE75
:010DC300002F
:00000001FF
