:020000040800F2
:100000005804002001010008DD0D00080D0D000856
:10001000D90D00086D010008BD10000800000000A7
:100020000000000000000000000000002D0F00088C
:100030007101000800000000CD0E0008610F0008EB
:100040001B0100081B0100081B0100081B01000820
:100050001B0100081B0100081B0100081B01000810
:100060001B0100081B0100081B0100081B01000800
:100070001B0100081B0100081B0100081B010008F0
:100080001B0100081B0100081B0100081B010008E0
:100090001B0100081B0100081B0100081B010008D0
:1000A0001B0100081B0100081B0100081B010008C0
:1000B0001B0100081B0100081B0100081B010008B0
:1000C0001B0100081B0100081B0100081B010008A0
:1000D0001B0100081B0100081B0100081B01000890
:1000E0001B0100081B0100081B010008DFF80CD0F1
:1000F00000F02AF800480047351100085804002095
:100100000648804706480047FEE7FEE7FEE7FEE7B1
:10011000FEE7FEE7FEE7FEE7FEE7FEE7C50F0008A5
:10012000ED000008D2B201E000F8012B491EFBD21D
:1001300070470022F6E710B513460A4604461946F2
:10014000FFF7F0FF204610BD064C074D06E0E068C3
:1001500040F0010394E8070098471034AC42F6D30E
:10016000FFF7C8FF2487000844870008FEE7000067
:100170007047000040F28410C4F221200021016089
:10018000012101607047000010B540F28C14C4F2E8
:1001900021240021216044F8041C00F0AFFE01205E
:1001A000206010BDB0B540F28C14C4F221240021AF
:1001B0000125216044F8045C00F0A0FE2560B0BD7C
:1001C00080B5FFF7D7FF1220FFF7DEFF00F07EF8C3
:1001D0007420FFF7D9FF5420FFF7E4FF7E20FFF7DC
:1001E000D3FF3B20FFF7DEFF2B20FFF7CDFF0420DE
:1001F000FFF7D8FF6320FFF7D5FF0C20FFF7C4FF00
:100200008B20FFF7CFFF9C20FFF7CCFF9620FFF756
:10021000C9FF0F20FFF7C6FF0120FFF7B5FF2B2016
:10022000FFF7C0FF0120FFF7BDFF0020FFF7BAFF77
:100230001120FFF7A9FF0120FFF7B4FF4420FFF7CB
:10024000A3FF0020FFF7AEFF3120FFF7ABFF4520F3
:10025000FFF79AFF2B20FFF7A5FF0120FFF7A2FF72
:100260000020FFF79FFF0020FFF79CFF3C20FFF7D7
:100270008BFF0120FFF796FF1820FFF785FF8020F6
:10028000FFF790FF2220FFF77FFFB120FFF78AFFE3
:100290002020FFF779FF00F019F84E20FFF774FFD8
:1002A0000020FFF77FFF4F20FFF76EFF2B20FFF7A7
:1002B00079FF0120FFF776FF80BD000080B5102098
:1002C000FFF762FF0120FFF76DFF80BD40F20010D5
:1002D000C4F2212001680029FCD17047EFF310809F
:1002E00072B600BFFEE70000B0B5044600F014F996
:1002F000054640F20800C2F200000078611C18BFF9
:10030000044400BF00F008F9401BA042FAD3B0BD7E
:100310002DE9F04F82B00E68002E00F0F38041F21C
:100320000042C4F20102042340F2004E904208BF92
:1003300003234FF6FF7CC4F2010E00930024012337
:10034000C1F2100C4FF0000A4FF0000940E0012507
:1003500004F00C030F279F402BEA070705FA03F36D
:100360003B4342F826304E68F203DEF8002054BFCB
:1003700022EA080242EA0802CEF80020DEF8042051
:10038000B30354BF22EA080242EA0802CEF804206E
:10039000F302DEF8082054BF22EA080242EA08020B
:1003A000B30240F20C43CEF80820C4F201031A68ED
:1003B00054BF22EA080242EA08021A6001230E68CA
:1003C0000AF1010A36FA0AF204F1040400F09A80F4
:1003D00003FA0AFB16EA0B08F1D04A68624511DC01
:1003E000122A51D8DFE802F0340A424650505050E9
:1003F000505050505050505050494D00D1F80C9032
:1004000042E000BF4FF6FF75C1F22105AA420FDCA2
:100410000025C1F21105AA421AD00025C1F2120529
:10042000AA4215D00025C1F22105AA4210D02BE026
:100430000025C1F22205AA420AD00025C1F23105E9
:10044000AA4205D00025C1F23205AA421CD100BF44
:100450008A6842B1012A14BFC0F814B0C0F810B0C5
:100460004FF0080910E04FF004090DE0CA6802F1EE
:10047000080909E04FF0000906E0CA6802F1040922
:1004800002E0CA6802F10C0922460546B8F5807FF1
:1004900024BF203A04352E680F279740BE4309FA3F
:1004A00002F232432A60CA79D2067FF588AF41F260
:1004B0001803C4F202031A684FEA9A0642F00102D6
:1004C0001A601A6840F6000302F001020192019AD4
:1004D000AEF57E7252F826B0C4F2010398420FD0F6
:1004E00040F60043C4F2010398423FF430AF41F2BA
:1004F0000003C4F20103009D984208BF022527E7CC
:10050000002525E702B0BDE8F08F0000002A08BFF3
:10051000090401617047000040F25400C2F200007B
:100520000068704740F2080040F25401C2F2000037
:10053000C2F2000100780A681044086070470000A9
:1005400080B542F20000C4F20200016841F01001DF
:100550000160032000F062F8002000F005F800F0D0
:100560002BF8002080BD0000B0B540F20802C2F2B6
:10057000000240F204011278C2F200014FF47A73D3
:100580000968B3FBF2F20446B1FBF2F1084600F051
:10059000E3FA0F2C4FF001050CD858B94FF0FF309B
:1005A00021460022002500F029F840F20C00C2F29A
:1005B000000004602846B0BD82B041F21800C4F2C9
:1005C00002000168022241F001010160016801F0AE
:1005D000010101910199416841F0805141604068F9
:1005E00000F08050009000980420C4F201000168DF
:1005F00062F31A61016002B07047000070B51446E2
:100600000D46064600F05CFD2946224600F0E8FB58
:100610000146304600F05CFD70BD000080B500F082
:1006200069FD80BD2DE9F04381B0002800F089808C
:1006300042F20008C4F202080446D8F800000D4651
:1006400000F0070088420CD2D8F8000020F0070024
:100650002843C8F80000D8F8000000F00700A842BE
:100660006FD1206841F204098107C4F2020917D54D
:10067000410705D5D9F8001041F4E061C9F8001030
:10068000010705D5D9F8001041F46051C9F80010F0
:10069000D9F80010A26821F0F0011143C9F8001048
:1006A000C00745D1D8F8000000F00700A8420CD9D7
:1006B000D8F8000020F007002843C8F80000D8F858
:1006C000000000F00700A8423BD12068410707D591
:1006D000D9F80010E26821F4E0611143C9F8001074
:1006E000000708D5D9F80000216920F4605040EADD
:1006F000C100C9F8000000F079F8D9F8001041F203
:10070000DC12C1F30311C0F60002515C40F2040296
:1007100020FA01F140F20C00C2F200000068C2F2BF
:1007200000021160FFF720FF002001B0BDE8F08358
:100730006068022809D0012829D159F8041C8903CE
:1007400007D4012001B0BDE8F08359F8041C8901E9
:10075000F7D5D9F8001021F003010843C9F80000CB
:10076000FFF7DAFE064641F2883700BFD9F80000ED
:10077000616800F00C00B0EB810F93D0FFF7CCFE66
:10078000801BB842F2D9032001B0BDE8F08359F8CC
:10079000041C8907D5D5DCE740F20400C2F2000052
:1007A0000068704780B5FFF7F7FF41F20401C4F21B
:1007B0000201096841F2EC12C1F30221C0F6000205
:1007C000515CC84080BD000080B5FFF7E5FF41F2F5
:1007D0000401C4F20201096841F2EC12C1F3C22122
:1007E000C0F60002515CC84080BD000041F2040C1C
:1007F000C4F2020CDCF8003003F00C00082841F2CF
:100800000020C0F27A0018BF7047C3F383420AA1E8
:100810008A5CD90305D440F60010C0F23D00504375
:100820007047DCF8001008A3C1F34041595C504305
:10083000B0FBF1F0704700BF02030405060708098A
:100840000A0B0C0D0E0F1010010200002DE9F041F3
:1008500082B0002800F0C4800446007841F200060F
:10086000C007C4F2020643D0706800F00C000428F0
:1008700017D0706800F00C00082802D17068C0031F
:100880000FD465682DB1B5F5A02F10D0B5F5803F18
:1008900011D0306820F480303060306820F480203F
:1008A0000CE03068800323D5606808BB98E03068AE
:1008B00040F480203060306840F480303060FFF7D2
:1008C0002BFE002D054610D03068800310D4FFF7B2
:1008D00023FE401B6428F7D904E100BFFFF71CFE8C
:1008E000401B64284FF0030077D830688003F5D4AC
:1008F0002078800718D5706810F00C0F07D070684A
:1009000000F00C00082826D17068C00323D430689A
:10091000800702D52069012862D13068616920F022
:10092000F80040EAC1003060207800073DD5A0699A
:1009300038B30020C4F242200121C0F88014FFF730
:10094000EBFD0546706A80072DD4FFF7E5FD401BDF
:100950000228F7D9C6E02069002840F20000C4F25E
:10096000422000F0968001210160FFF7D5FD054689
:1009700030688007D1D4FFF7CFFD401B0228F7D99C
:10098000B0E00020C4F242200021C0F88014FFF73C
:10099000C3FD0546706A800707D5FFF7BDFD401B04
:1009A0000228F7D99EE000F093FA207840071BD484
:1009B000E5698DB1706800F00C00082847D1012D61
:1009C0000ED07068216A00F480328A4208D1616AD0
:1009D00000F47010884203D1002002B0BDE8F0811D
:1009E000012002B0BDE8F081F06910F0805808D114
:1009F000F06940F08050F061F06900F080500190A3
:100A0000019847F20007C4F200073868C00510D407
:100A1000386840F480703860FFF77EFD054600BFFF
:100A20003868C00505D4FFF777FD401B6428F7D967
:100A300058E0E5681DB1052D3CD0012D3ED0306A4F
:100A400020F001003062306A20F0040039E0002715
:100A5000C4F2422700203866FFF75EFD022D0546EE
:100A60000CD100BF3068800154D5FFF755FD401B05
:100A700002284FF00300F5D9AFE700BF30688001CE
:100A8000AAD5FFF749FD401B02284FF00300F5D916
:100A9000A3E700210160FFF73FFD054630688007AE
:100AA0007FF542AFFFF738FD401B02284FF00300EF
:100AB000F4D992E7306A40F004003062306A40F0C6
:100AC00001003062FFF728FD002D054641F288370E
:100AD00014D000BF306A800713D4FFF71DFD401B00
:100AE000B842F7D9032002B0BDE8F081FFF714FD4A
:100AF000401BB8424FF003003FF66FAF306A8007EB
:100B0000F4D4B8F1000F7FF453AFF06920F08050B7
:100B1000F0614DE7206AB0F5803F05D17168A268A9
:100B200021F40031114371607168626A21F474111B
:100B300010430843706001203866FFF7EDFC04465F
:100B4000306880013FF548AFFFF7E6FC001B022844
:100B50004FF00300F4D940E780B500F0E9F980BD1B
:100B6000002804BF0120704710B5044690F83D00EE
:100B700028B9002084F83C00204600F021F8242009
:100B800084F83D002068C16821F40051C16020460E
:100B900000F01AFA2068016921F49041016141696D
:100BA00021F02A014161C16841F40051C160002077
:100BB0002021206484F83D1084F83E1010BD000010
:100BC00070B586B040F60004C4F20104006804F574
:100BD0004051002688420596CDE90366029601D071
:100BE00006B070BD41F21800C4F20200016802AD07
:100BF00041F480410160016801F480410191019953
:100C0000016841F0040101600068294600F0040019
:100C1000019001984FF4007002900220039003208D
:100C200005902046FFF774FB4FF48060CDE9020683
:100C3000204629460496FFF76BFB06B070BD000006
:100C40002DE9F04381B0044690F83D0020280BD1F7
:100C50000E4600294FF0010055D01746002A52D009
:100C600094F83C00012803D1022001B0BDE8F083D4
:100C7000012084F83C004FF0000921201D46C4F8F3
:100C8000409084F83D00FFF747FCA784E784A16803
:100C90000746B1F5805F07D1206900281CBF3046A8
:100CA0004E46B046064601E04FF0000884F83C90FE
:100CB00007E000BF16F8010B21684860E08C01389E
:100CC000E084E08C80B1204680213A462B4600F03B
:100CD000C3F980B9002EEDD138F8020B21686FF30B
:100CE0005F2048600026E9E7204640213A462B462F
:100CF00000F0B2F918B1032001B0BDE8F083202064
:100D000084F83D00002001B0BDE8F083FEE700005C
:100D10002DE9F04186B0002641F21800CDE90466C5
:100D2000CDE90266C4F20200016840F6000441F019
:100D3000100101600168C4F2010401F01001019189
:100D400001990168002241F02001016001684FF023
:100D50003E0801F0200101910199016841F0040170
:100D6000016000683E2100F00400019001982046D7
:100D7000FFF7CCFB02AD012720462946CDE90276DC
:100D80000496FFF7C5FA0220059020462946CDE9D2
:100D900002870496FFF7BCFA06B0BDE8F0810000B8
:100DA00080B540F2100043F60001C2F20000C4F228
:100DB000010100234FF00C0C4FF4E13280E80E00EB
:100DC000C0E90333C0E905C3C361FFF7C9FE0028CA
:100DD00008BF80BDFFF782FAFEE70000FEE70000D3
:100DE00000F0070080F00703042B28BF04234FF016
:100DF000FF3C03380CFA03F338BF002099438140CD
:100E00000CFA00F022EA00000843704770B505466E
:100E100024200C46FFF7B8F95DB1013D43F6982652
:100E200015F8010F80F0FF00FFF7BCF9013EF7D184
:100E300007E043F6982500BFFF20FFF7B3F9013D17
:100E4000FAD12620FFF7A0F94CB1013C43F69825D2
:100E500014F8010FFFF7A6F9013DF9D107E043F6B9
:100E6000982400BF0020FFF79DF9013CFAD1222011
:100E7000FFF78AF9C720FFF795F92020FFF784F9DB
:100E8000FFF724FA70BD000010B52420FFF77CF9AD
:100E900043F69824FF20FFF785F9013CFAD126207C
:100EA000FFF772F943F698240020FFF77BF9013C25
:100EB000FAD12220FFF768F9C720FFF773F9202045
:100EC000FFF762F9FFF702FA10BD0000704700005B
:100ED00081B040F20400C2F20000006844F6D35131
:100EE000C1F26201A0FB0101480A009000BF009816
:100EF000411E00280091F9D101B0704780B540F241
:100F000090124FF0000CC4F221224FF0010E00218C
:100F1000C3B2DB094000072901F10101C2F800C09A
:100F20005360C2F800E0F3D380BD000070470000BA
:100F3000B0B501380024B4EB106F1CBF0120B0BD68
:100F40004EF21005CEF2000568604FF0FF300F2121
:100F500000F0BEF80720AC6028602046B0BD00005D
:100F600080B5FFF7DFFA80BD70B590B006AC2046C3
:100F70002821FFF7DEF801200A9010200B904FF493
:100F80006010002502260F9020460595CDE90355F7
:100F9000CDE901550696CDE90D65FFF757FC78B907
:100FA0000F20CDE901064FF48060CDE9040501A8CA
:100FB00002210395FFF736FB002804BF10B070BD77
:100FC000FFF78CF97047000010B504460068D4E9BB
:100FD00002C22369016921F4405111430161616931
:100FE00043EA0C021143C26841F20C639A43114375
:100FF000C1604169A26921F44071114343F60002C6
:10100000C4F201029042416102D0FFF7CBFB01E044
:10101000FFF7DAFB6268192148439100B0FBF1F059
:1010200048F21F51C5F2EB11A0FB01235A096FF0E2
:10103000630302FB0300322303EB0010A0FB01015A
:10104000F02303EA5113206803EB0212C1F34311AA
:101050001144816010BD00002DE9F0410446006894
:1010600000680840884202D10020BDE8F0811D469A
:101070000E4690465F1C04E0206800683040B04295
:10108000F2D0002FF8D02DB1FFF746FAA0EB080000
:10109000A842F1D92068C16821F4D071C1604169CA
:1010A00021F001014161202084F83D0084F83E00D8
:1010B000002084F83C000320BDE8F081FEE700003A
:1010C0004EF60C50CEF200000068C0F302207047CC
:1010D0004EF6145300F00F02CEF2000309011A4439
:1010E00000F16043B0F1FF3FC8BF03F564421170E7
:1010F000704700004EF60C51CEF200010A684FF620
:10110000FF031A4060F30A2242F0806040F0FD7055
:101110000860704780B582B0019040F21000C2F2C2
:10112000000001A901224FF6FF73FFF789FD019826
:1011300002B080BDFFF704FAFFF716FFFFF7E8FDE6
:10114000FFF72EFE00F002F8FCE7000010A000F010
:1011500033F8FFF735F84FF4FA60FFF7C5F8FFF7FB
:1011600093FE41F2F411C0F600010020FFF74EFE9D
:101170004FF4FA60FFF7B8F844F68C40C0F6000070
:101180000021FFF743FEFFF799F800BFFEE700BF1D
:1011900068656C6C6F0D000002E008C8121F08C182
:1011A000002AFAD170477047002001E001C1121FE8
:1011B000002AFBD17047000010B5044601E0FFF79C
:1011C000A9FF14F8010B04490028F8D1BDE810402C
:1011D0000A20FFF79FBF0000000000200000000071
:1011E00000000000010203040607080900000000D7
:1011F00001020304000000000000000000000000E5
:101200000000000000000000000000000FFF800050
:1012100000000000000000000000000000000000CE
:1012200000000000000000000000000000000000BE
:1012300000000000000000000000000000000FFFA0
:10124000800000000000000000000000000000001E
:10125000000000000000000000000000000000008E
:10126000000000000000000000000000000000007E
:101270001FFFE00000000000000000000000000070
:10128000000000000000000000000000000000005E
:10129000000000000000000000000000000000004E
:1012A00000007FFFE00000000000000000000000E0
:1012B000000000000000000000000000000000002E
:1012C000000000000000000000000000000000001E
:1012D00000000000FFFFF800000000000000000018
:1012E00000000000000000000000000000000000FE
:1012F00000000000000000000000000000000000EE
:10130000000000000000FFFFF800000000000000E7
:1013100000000000000000000000000000000000CD
:1013200000000000000000000000000000000000BD
:101330000000000000000001FFFFFC0000000000B2
:10134000000000000000000000000000000000009D
:10135000000000000000000000000000000000008D
:1013600000000000000000000003FFFFFE0000007E
:10137000000000000000000000000000000000006D
:10138000000000000000000000000000000000005D
:10139000000000000000000000000007FFFFFF0049
:1013A000000000000000000000000000000000003D
:1013B000000000000000000000000000000000002D
:1013C0000000000000000000000000000007FFFF18
:1013D000FF0000000000000000000000000000000E
:1013E00000000000000000000000000000000000FD
:1013F0000000000000000000000000000000000FDE
:10140000FFFFFF800000000000000000000000005F
:1014100000000000000000000000000000000000CC
:1014200000000000000000000000000000000000BC
:10143000000FFFFFFF800000000000000000000020
:10144000000000000000000000000000000000009C
:10145000000000000000000000000000000000008C
:101460000000000FFFFFFF800000000000000000F0
:10147000000000000000000000000000000000006C
:10148000000000000000000000000000000000005C
:1014900000000000000FFFFFFF80000000000000C0
:1014A000000000000000000000000000000000003C
:1014B000000000000000000000000000000000002C
:1014C000000000000000000FFFFFFF800000000090
:1014D000000000000000000000000000000000000C
:1014E00000000000000000000000000000000000FC
:1014F0000000000000000000000FFFFFFF80000060
:1015000000000000000000000000000000000000DB
:1015100000000000000000000000000000000000CB
:1015200000000000000000000000000FFFFFFF802F
:1015300000000000000000000000000000000000AB
:10154000000000000000000000000000000000009B
:101550000000000000000000000000000007FFFF86
:10156000FF0000000000000000000000000000007C
:10157000000000000000000000000000000000006B
:101580000000000000000000000000000000000358
:10159000FF9FFE00000000000000000000000000AF
:1015A000000000000000000000000000000000003B
:1015B000000000000000000000000000000000002B
:1015C0000003FF06FC0F0000000000000000000008
:1015D000000000000000000000000000000000000B
:1015E00000000000000000000000000000000000FB
:1015F00000000001FC03F81F800000000000000054
:1016000000000000000000000000000000000000DA
:1016100000000000000000000000000000000000CA
:1016200000000000030000E0001F80000000000038
:1016300000000000000000000000000000000000AA
:10164000000000000000000000000000000000009A
:1016500000000000000003C001F0001F8000000037
:10166000000000000000000000000000000000007A
:10167000000000000000000000000000000000006A
:10168000000000000000000003C003F8001FC000BD
:10169000000000000000000000000000000000004A
:1016A000000000000000000000000000000000003A
:1016B0000000000000000000000007C003F8007FE9
:1016C000C00000000000000000000000000000005A
:1016D000000000000000000000000000000000000A
:1016E00000000000000000000000000407E0017896
:1016F000007FC000000000000000000000000000AB
:1017000000000000000000000000000000000000D9
:10171000000000000000000000000000000F0FC0EB
:101720000030007F0000000000000000000000000A
:1017300000000000000000000000000000000000A9
:101740000000000000000000000000000000001F7A
:101750000FC01000007F000000000000000000002B
:101760000000000000000000000000000000000079
:101770000000000000000000000000000000000069
:10178000007F8000F800001800000000000000004A
:101790000000000000000000000000000000000049
:1017A0000000000000000000000000000000000039
:1017B0000000007F8001F800000000000000000031
:1017C0000000000000000000000000000000000019
:1017D0000000000000000000000000000000000009
:1017E00000000000007F8001FC000000F800000005
:1017F00000000000000000000000000000000000E9
:1018000000000000000000000000000000000000D8
:10181000000000000000007FE00078000007FFC02B
:1018200000000000000000000000000000000000B8
:1018300000000000000000000000000000000000A8
:101840000000000000000000007FF0003800001FD2
:10185000FFF8000000000000000000000000000091
:101860000000000000000000000000000000000078
:1018700000000000000000000000007FF8003000C1
:10188000003FFFFF0000000000000000000000001B
:101890000000000000000000000000000000000048
:1018A000000000000000000000000000007FFC00BD
:1018B0000000007FFFFFC0000000000000000000EB
:1018C0000000000000000000000000000000000018
:1018D0000000000000000000000000000000007F89
:1018E000FC00000000FFFFFFF0000000000000000F
:1018F00000000000000000000000000000000000E8
:101900000000000000000000000000000000000EC9
:10191000807FF800000001FFFFFFF80000000000DA
:1019200000000000000000000000000000000000B7
:1019300000000000000000000000000000000000A7
:10194000003B403FF000000001FFFFFFFE000000F1
:101950000000000000000000000000000000000087
:101960000000000000000000000000000000000077
:10197000000000FFE01FF007F00001FFFFFFFF8005
:101980000000000000000000000000000000000057
:101990000000000000000000000000000000000047
:1019A0000000000000FFF0000007FF8003FFFFFFC2
:1019B000FFC0000000000000000000000000000068
:1019C0000000000000000000000000000000000017
:1019D00000000000000001FFF8000007FFF003FF17
:1019E000FFFFFFF00000000000000000000000000A
:1019F00000000000000000000000000000000000E7
:101A0000000000000000000003FFFC00000FFFFCCE
:101A100003FFFFFFFFF000000000000000000000D7
:101A200000000000000000000000000000000000B6
:101A30000000000000000000000003FFFA00000F9B
:101A4000FFFF03FFFFFFFFF00000000000000000A9
:101A50000000000000000000000000000000000086
:101A600000000000000000000000000003FFFF0075
:101A7000001FFFFF83FFFFFFFFF0000000000000DA
:101A80000000000000000000000000000000000056
:101A9000000000000000000000000000000003FF44
:101AA000FF80003FFFFFE1FFFFFFFFF000000000AD
:101AB0000000000000000000000000000000000026
:101AC0000000000000000000000000000000000016
:101AD00003FFFF80003FFFFFE0FFFFFFFFF000007C
:101AE00000000000000000000000000000000000F6
:101AF00000000000000000000000000000000000E6
:101B0000000001FFFFC0003FFFFFF0FFFFFFFFE00D
:101B100000000000000000000000000000000000C5
:101B200000000000000000000000000000000000B5
:101B30000000000001FFFFC0003FFFFFF0FFFFFFBC
:101B4000FFE00000000000000000000000000000B6
:101B50000000000000000000000000000000000085
:101B600000000000000000FFFFC0003FFFFFF83F43
:101B7000FFFFFFE000000000000000000000000088
:101B80000000000000000000000000000000000055
:101B9000000000000000000000FFFFE0007FFFFFEA
:101BA000F81FFFFFFFE00000000000000000000041
:101BB0000000000000000000000000000000000025
:101BC0000000000000000000000000FFFFE0007FB8
:101BD000FFFFF80FFFFFFFC0000000000000000043
:101BE00000000000000000000000000000000000F5
:101BF00000000000000000000000000001FFFFF0F6
:101C0000007FFFFFF803FFFFFFC01FE000000000A0
:101C100000000000000000000000000000000000C4
:101C2000000000000000000000000000000007FFAE
:101C3000FFF0007FFFFFF000FFFFFFC0FFF8000094
:101C40000000000000000000000000000000000094
:101C50000000000000000000000000000000000084
:101C600007FFFFE8007FFFFFD000FFFFFF80FFF8C6
:101C70000000000000000000000000000000000064
:101C80000000000000000000000000000000000054
:101C900000000FFFFFF8007FFFFFE000FFFFFF8065
:101CA000FFFC000000000000000000000000000039
:101CB0000000000000000000000000000000000024
:101CC000000000001FFFFFB8007FFFFFE001FFFFE3
:101CD000FF80FFF80000000000000000000000008E
:101CE00000000000000000000000000000000000F4
:101CF0000000000080003FFFFFF0007FFFFF800139
:101D0000FFFFFF00FFF800000000000000000000DF
:101D100000000000000000000000000000000000C3
:101D2000000000000001C0003FFFFFE0007FFF0057
:101D30000001FFFFFF00FFF00000000000000000B6
:101D40000000000000000000000000000000000093
:101D5000000000000000001BE0003FFFFFC0007F0C
:101D6000FF000003FFFFFE00FFC0000000000000B6
:101D70000000000000000000000000000000000063
:101D80000000000000000000003FE0003FFFFF8077
:101D9000007FFF01F003FFFFFC00FF800000000058
:101DA0000000000000000000000000000000000033
:101DB00000000000000000000000007FE0001FFFA6
:101DC000FE00003FFE03F1FBFFFFEC387F8003C005
:101DD0000000000000000000000000000000000003
:101DE000000000000000000000000000007FE00094
:101DF0001FFFF800001FFC03F1FBFFFFF8F87F80D6
:101E00001FE00000000000000000000000000000D3
:101E10000000000000000000000000000000003D85
:101E2000C00007FFE000000FF803F9FBFFFFF9FC1B
:101E30003F003FF80000000000000000000000002C
:101E40000000000000000000000000000000000092
:101E5000001F800007FFC0000007F000F1E3FFFF54
:101E6000F1FC3F00FFF8000000000000000000004F
:101E70000000000000000000000000000000000062
:101E800000000007000001FF00000003E00071E116
:101E9000FFFFF1FC0C00FFF8000000000000000054
:101EA0000000000000000000000000000000000032
:101EB000000000000000000000F000000000001F13
:101EC00001C0FFFFE0380001FFF800000000000043
:101ED0000000000000000000000000000000000002
:101EE00000000000000000000000000000000000F2
:101EF000001F8000FFFFC0300003FFF8000000005B
:101F000000000000000000000000000000000000D1
:101F100000000000000000000000000000000000C1
:101F20000000003FC000FFFF80000007FFF8000036
:101F300000000000000000000000000000000000A1
:101F40000000000000000000000000000000000091
:101F50000000000000FFE0007FFF0780000FFFF897
:101F60000000000000000000000000000000000071
:101F70000000000000000000000000000000000061
:101F800000000000000000FFE0001FFC0770001FC1
:101F9000FFF0000000000000000000000000000052
:101FA00000000000000000000000000000000FFF23
:101FB000F00000000000000000FFE00001E00FFC66
:101FC000001FFFE000000000000000000000000013
:101FD0000000000000000000000000000000000001
:101FE0003FFFFE00000000000000FFFFE0000000D7
:101FF0001FFF003FFFE000000000000000000000A5
:1020000000000000000000000000000000000000D0
:102010000000FFFFFE00000000000000FFFFE7C01F
:1020200080003FFF803FFFE0000000000000000054
:1020300000000000000000000000000000000000A0
:1020400000000001FFFFFC00000000000001FFFF96
:10205000FFE1F8003FFFE01FFFF00000000000007C
:102060000000000000000000000000000000000070
:10207000000000000001FFFFFE0000000003F80365
:10208000FFFFEFE1FC007FFFF00FFFF80000000012
:102090000000000000000000000000000000000040
:1020A0000000000000000003FFFFFE00000000FF32
:1020B000FC03FFFFEFE1FC00FFFFF807FFF8000063
:1020C0000000000000000000000000000000000010
:1020D00000000000000000000007FFFFFF000000FC
:1020E0001FFFFC03FFFFE1E1F801FFFFFC03FFF826
:1020F00000000000000000000000000000000000E0
:10210000000000000000000000000007FFFFFF00CB
:102110000001FFFFFE03FFFFC0C0F001FFFFFE0351
:10212000FFF80000000000000000000000000000B8
:102130000000000000000000000000000007FFFF9A
:10214000FF000007FFFFFF03FFFFC0006001FFFF6C
:10215000FF00FFF80FFFFF0000000000000000007C
:102160000000000000000000000000000000000768
:10217000FFFFFF00003FFFFFFF81FFFFC0000003E4
:10218000FFFFFF80FFF8FFFFFF00000000000000DE
:10219000000000000000000000000000000000003F
:1021A0000007FFFFFF0000FFFFFFFF81FFFF800030
:1021B0000003FFFFFF803FF0FFFFFF8000000000F3
:1021C000000000000000000000000000000000000F
:1021D00000003C07FFFFFF0003FFFFFFFF807FFFC2
:1021E00080000007FFFFFF800FE1FFFFFF8000007E
:1021F00000000000000000000000000000000000DF
:1022000000000000FF01FFFFFF000FFFFFFFFFC006
:102210003FFF81800F07FFFFFF800783FFFFFF80E5
:1022200000000000000000000000000000000000AE
:10223000000000000F80FF01FFFFFF003FFFFFFFD6
:10224000FFC00FFF03C00F07FFFFFF806007FFFF06
:10225000FFC00000000000000000000000000000BF
:102260000000000000003FC07F80FFFFFF003FFF35
:10227000FFFFFFE013FF01E00F8FFFFFFF81F00F73
:10228000FFFFFFC000000000000000000000000091
:1022900000000000000000003FE03F803DFFFF0025
:1022A000FFFFFFFFFFE0F00F03F00FCFFFFFFF8303
:1022B000F00FFFFFFFC00000000000000000000062
:1022C00000000000000000000000FFF83F8001FF58
:1022D000FF00FFFFFFFFFFF3F80003F00F8FFFFF8A
:1022E000FF87F00FFFFFFFC00000000000000000AC
:1022F000000000000000000000000000FFF83F00A8
:1023000001FFFE01FFFFFFFFFFF3F80007E00F0FE3
:10231000FFFFFF03F00FFFFFFFC000000000000001
:102320000000000000000000000000000001FFFCB1
:102330007F0001FFFE03FFFFFFFFFFF3F8000380B4
:102340000007FFFFFF00700FFFFFFFC0000000004D
:10235000000000000000000000000000000000017C
:10236000FFFC3C0001FFFE07FFFFFFFFFFF87800C6
:1023700000000007FFE3FC00600FFFFFFFC000004C
:10238000000000000000000000000000000000004D
:102390000001FFFE180000FFFC0FFFFFFFFFFFF82A
:1023A000300000000003FFE0F000000FFFFFFFC05F
:1023B000000000000000000000000000000000001D
:1023C00000000001FFFE000001FFFC0FFFFFFFFF08
:1023D000FFF8018000000003FFC0001E000FFFFF98
:1023E000FFC000000000000000000000000000002E
:1023F000000000000001FFFE000000FFF81FFFFFCB
:10240000FFFFFFFC03E00000F001FF80003F00073A
:10241000FFFFFFC0000000000000000000000000FF
:10242000000000000000001FFFFE00FF803FF81FBB
:10243000FFFFFFFFFFFC07E00003FC00FE1F007F23
:102440000003FFFFFFC0F0C000000000000000001C
:10245000000000000000000000FFFFFE01FFE03F61
:10246000F01FFFFFFFFFFFFC07F03807FF00383FBA
:1024700004FF81E1FFFFFFC3FBF00000000000004C
:102480000000000000000000000000FFFFFF07FF49
:10249000F01FC01FFFFFFFFFFFFC07F0FC0FFF80D6
:1024A000007F1FFF83F07FFFFFC3FFF800000000E5
:1024B00000000000000000000000000001FFFFFF1E
:1024C00007FFF803001FFFFFFFFFFFFC07E0FC1FF3
:1024D000FFC0007F3FFF87F007FFFFC3FFF800004A
:1024E000000000000000000000000000000003FFEA
:1024F000FFFF0FFFFE00001FFFFFFFFFFFFE0200B8
:10250000FC3FFFE0000F3FFF07F001FFFFC3FFF8B4
:1025100000000000000000000000000000000000BB
:1025200007FFFFFF1FFFFF00001FFFFFFFFFFFFE72
:102530000000FC7FFFF000073FFF07F001FFFFC135
:10254000FFF8000000000000000000000000000094
:10255000000007FFFFFF1FFFFF80001FFFFFFFFFBF
:10256000FFFE00001C7FFFF000003FFF07FC01FFA3
:10257000FFC1FFF8000000000000000000000000A4
:102580000000000007FFFFFF3FFFFFC0001FFFFF2D
:10259000FFFFFFFE000008FFFFF0FE001FFF07FE29
:1025A00001FFFF81FFE000000000000000000000CC
:1025B00000000000000007FFFFFF3FFFFFC0001FFB
:1025C000FFFFFFFFFFFE000000FFFFF9FFC00FFE4F
:1025D0000FFE01FFFF80FFE0000000000000000090
:1025E000000000000000000007FFFFFF3FFFFFE0CA
:1025F000000FFFFFFFFFFFFE000380FFFFFFFFE074
:1026000007FC07FC00FFFF007F80000000000000C7
:102610000000000000000000000007FFFFFE3FFF79
:10262000FFE00007FFFFFFFFFFFE0187C0FFFFFF86
:10263000FFF000FC03FC007FFF003F800000000073
:1026400000000000000000000000000003FFFFFE8B
:102650003FFFFFF00007FFFFFFFFFFFE07FFE0FF68
:10266000FFFFFFF800180078FC7FFF801E000000CD
:10267000000000000000000000000000001C03FF3C
:10268000FFFE1FFFFFF83F07FFFFFFFFFFFF0FFFEA
:10269000E0FFFFFFFFF804000000FE3FFFC0040062
:1026A0000000000000000000000000000000003FEB
:1026B00000FFFFFE1FFFFFF83F81FFFFFFFFFFFF4F
:1026C0000FFFE0FFFFFFFFF87E000000FE1FF9E0B4
:1026D00000000000000000000000000000000000FA
:1026E00000FF80FFFFFE1FFFFFFC3FE0FFFFFFFF3B
:1026F000FFFF0FFFE0FFFFFFFFFCFE0000003E0FAB
:10270000F1F000003FC000000000000000000000E9
:10271000000001FFC03FFFFC0FFFFFFC3FE07FFF19
:10272000FFFFFFFF0FFFE0FFFFFFFFFCFE000000C9
:102730003C0003F00000FFF000000000000000007B
:102740000000000003FFC003FF8007FFFFFE3FE023
:102750000FFFFFFFFFFF07FFC07FFFFFFFFCFE0033
:102760000000380003F00603FFF80000000000003E
:1027700000000000000007FFC000000007FFFFFE90
:102780000FC000F83FFFFFFE03FF807FFFFFFFFC4D
:102790001F1000C0000003C00F03FFFC000000007A
:1027A00000000000000000000FFFC000003C07FF19
:1027B000FFFF0FC000003FFFFFFE03FF807FFFFF12
:1027C000FFFC0FFC01E0008000000B87FFFE000013
:1027D000000000000000000000000FFFC00000FE2D
:1027E0000FFFFFFF0FC000003FFFFFFE01FF007F54
:1027F000FFFFFFFC07FF01F007C000000F8FFFFF86
:102800008000000000000000000000001FFFC0006A
:1028100000FE3FFFFFFF8F8080001FFFFFFC007E58
:10282000003FFFFFFFFC07FF00F01FC000000FCFBD
:10283000FFFFC000000000000000000000001FFFBC
:102840008003803EFFFFFFFF8703F0E01FFFFFFCD8
:10285000001C003FFFFFFFF807FF81F81FC00000CA
:102860001FCFFFFFE000000000000000000000009C
:102870001FFF8007E03CFFFFFFFF8003FFF01FFF0B
:10288000FFFC0000003FFFFFFFF80FFF83F80FC0C1
:102890001FEF9F0FFFFFF00000000000000000008E
:1028A00000003FFFE00FF019FFFFFFFFC003FFF83C
:1028B0000FFFFFF80000001FFFFFFFF01FFF81E088
:1028C00001C03FFFE00FFFFFF80000000000000024
:1028D000000000003FFFE00FF011FFFFFFFFC0030B
:1028E000FFF807FFFFF80000001FFFFFFFE03FFFBA
:1028F000800001C03FFFF00FFFFFF8000000000064
:102900000000000000007FFFF00FFC03FFFFFFFF4F
:10291000C003FFF807FFFFF00000000FFFFFFFC03C
:102920003FFF000000003FFFF80FFFFFFC0000002A
:1029300000000000000000007FFFF80FFF83FFFF92
:10294000FFFFC003FFF803FFFFE00000000FFFFFE1
:10295000FF807FFF000000007FFFF80FFFFFFE00F9
:10296000000000000000000000006FFFF80FFFC72C
:10297000FFFFFFFF8001FFF001FFFFC01F000C07FA
:10298000FFFFFF007FFF000007C07FFFFC07FFFF86
:10299000FE00000000000000000000001FFFF80F14
:1029A000FFC7FFFFFFFF0001FFF000FFFF81FF8077
:1029B0007C07FFFFFC00FFFF80038FE07FFFFC0729
:1029C000FFFFFF00000000000000000000001FFFEC
:1029D000F80FFFC7FFFFFFFC0000FFC0003FFF0F25
:1029E000FF80FC03FFFFF000FFFF8007FFE07FFF99
:1029F000FC03FFFFFF80000000000000000000005B
:102A000007FFF80FFFC7FFFFFFF80000FFC0001F20
:102A1000FC3FFFC0FE01FFFFE000FFFFC00FFFE033
:102A20007FFFF803FFFFFF800000000000000000B0
:102A3000000001FFF807FF87FFFFFFF007C07F00DE
:102A4000000FE0FFFFC0FE39FFFF0001FFFFE00FB6
:102A5000FFE07FFFF801FFFFFFC000000000000063
:102A60000000000000FFF007FF07FFFFFFC007C0E6
:102A70001C00601C00FFFFE00E3CFFFC0000FFFF9D
:102A8000E00FFFE07FFFF801FFFFFFC00000000044
:102A9000000000000000001FE003FE03FFFFFF80B6
:102AA0000FC01800F81C01FFFFE00C3C7FE00000A5
:102AB000FFFFF00FFFC07FFFFF03FFFFFFE00000FD
:102AC0000000000000000000000300018001FFFF83
:102AD000FF000FE00000F81F01FFFFE0003E7E0056
:102AE00000003FFFF007FFC07FFE1F87FFFFFFE0F2
:102AF0000000000000000000003FE00000000001B6
:102B0000FFFFFC1F0BE00000FC3F01FFFFF0007F18
:102B1000000000001FFFF003FF803FFC3F8FFFFF1E
:102B2000FFF00000000000000000007FE000000057
:102B30000000FFFFF03F81C00001FC3F01FFFFF0FC
:102B4000007E0000000007FFE001FF803FFC3F9F88
:102B5000FFFFFFF0000000000000000001FFF00197
:102B6000C00000003FFF801F8083F001F83E01FF9E
:102B7000FFF3C0380007FF0003FFC000FF003FFC69
:102B80000F9FFFFFFFE0000000000000000001FFBA
:102B9000F801F00100001FFF000F0003F801F83CEE
:102BA00001FFFFF3C0000007FFFF00FFC0007E0031
:102BB0003FF803BFFFFFFFE000000000000000003F
:102BC00001FFF803F003C00003D0000F0001F8007C
:102BD000000001FFFFF3E000000FFFFFF01E000008
:102BE0001C001FF8017FFFFFFF80000000000000B5
:102BF000000001FFF001F007C00000000007000125
:102C0000F000000000FFFFF3F000000FFFFFFF00E7
:102C1000002000000FF0007FFFFFFF000000000019
:102C20000000000001FFE001F07FC0000700000489
:102C30000000F0E00000003FFFF7F000001FFFFF82
:102C4000FFC0007C000003E0007FFFFFFE000000EB
:102C500000000000000001FFC000E0FFC00007C04E
:102C600000000000E3F0F0000000FFF7E003E01FC9
:102C7000FFFFFFF800FE00700001C07FFFFFFC00B7
:102C8000000000000000000000FF0000E0FFC07E28
:102C900007C000B07E0067FFF8000000FFE301E717
:102CA000F03FFFFFFFFE00FF007C0001E07FFFFF21
:102CB000F800000000000000000000FF01F000FF2D
:102CC000C07F07E00FF87F0007FFF83FE0007FE0DC
:102CD00003FFF03FFFFFFFFF80FF807E0001F07FDA
:102CE000FFFFF000000000000000000000FF03FFF5
:102CF000003F807E0FE0FFF83F000FFFF83FFE002F
:102D00003FC007FFF03FFFFFFFFFE07F80FE0001B5
:102D1000F07FFFFFE0000000000000000000007FE7
:102D200007FF801F803E0FC1FFFC3F000FFFF87FB1
:102D3000FFC01F8007FFF07FFFFFFFFFF83F00FE8F
:102D40000003F83FFFFFEE0000000000000000005D
:102D500000361FFFE007001E0307FFFC1E07FFFFF2
:102D6000707FFFF00D0007FFF0FFFFFFFFFFFC7F0C
:102D700000F00003F03FFFFFFF0000000000000034
:102D80000000003C1FFFF000001C0007FFFC1C0FB0
:102D9000FFFF20FFFFF8000007FFE0FFFFFFFFFF3E
:102DA000FFFE00600077C01FFFFE3F000000000034
:102DB0000000000000001FFFF8000000001FFFFEE1
:102DC000081FFFFF00FFFFFE000003FFE0FFFFFF03
:102DD000FFFFFFFC000000FF800FFFF87F000000F6
:102DE000000000000000FF001FFFFC006000001F4B
:102DF000FFFE001FFFFF00FFFFFF000001FFC1FFFC
:102E0000FFFFFFFFFFF8000001FF8003FFE03F002E
:102E10000000000000000003FFC00FFFFF00FE00E5
:102E2000001FFFFE003FFFFE01FFFFFF001F00FF2E
:102E3000C1FFFFFFFFFFFFE0000003FFE001FE8096
:102E400007000000000000000007FFC00FFFFF00A8
:102E5000FF80001FFFFF003FFFFE01FFFFFF807F9D
:102E6000807F81FFFFFFFFFFFFF0000007FFF800FA
:102E700000000200FF0000000000000FFFE007FF5D
:102E8000FE01FFE0001FFFFF003FFFFE01FFFFFF0D
:102E900080FF800F03FFFFFFFFFFFFF007C007FF6A
:102EA000FC000000003FFF0000000000001FFFE0EA
:102EB00007FFFE03FFFC001FFFFF001FFFFE01FFD7
:102EC000FFFF81FFC00603FFFFFFFFFFFFF87FE06A
:102ED0000FFFFE00600007FFFF8000000000001FE2
:102EE000FFF801FFFC07FFFF001FFFFF161FFFFE9B
:102EF00003FFFFFFC1FFC00003FFFFFFFFFFFFFF56
:102F0000FFF01FFFFF8070007FFFFFC00000000088
:102F1000003FFFF801FFFC0FFFFFC007FFFF3F8FDF
:102F2000FFFC03FFFFFFC1FFC00607FFFFFFFFFF1E
:102F3000FFFFFFF01FFFFFC0F803FFFFFFC000000F
:102F40000000007FFFF801FFFC1FFFFFF006FFFFFE
:102F50001F8FFFFC03FFFFFF83FFE00F07FFFFFF53
:102F6000FFFFFFFFFFF83FFFFFE0F80FFFFFFFC08D
:102F700000000000007FFFF801FFF81FFFFFFC00CA
:102F80000FFF1F83FFF803FFFFFF83FFE00F87FFA3
:102F9000FFFFFFFFFFFFFFF03FFFFFE0FC3FFFFFF2
:102FA000FFE00000000000FFFFF803FFF03FFFFF1D
:102FB000FF000FFF0F80FFF807FFFFFF83FFFE0FEB
:102FC00087FFFFFFFFFFFFFFFFF07FFFFFF1FCFF29
:102FD000FFFFFFE00000000000FFFFF803FFF07FAD
:102FE000FFFFFF8007FE0F003FF807FFFFFF03FF13
:102FF000FF0FCFFFFFFFFFFFFFFFFFE07FFFFFF1AE
:10300000F9FFFFFFFFF00000000001FFFFF803FFE2
:10301000E07FFFFFFFC003FC0F0003F003FFFFFC96
:1030200003FFFFDF8FFFFFFFFFFFFFFFFF80FFFFBB
:10303000FFF0CFFFFFFFFFF00000000001FFFFF8EF
:1030400003FFC0FFFFFFFFF001FC0000000303FFD0
:10305000FFF803FFFFFF0FFFFFFFFFFFFFFFFF0072
:10306000FFFFFFF00FFFFFFFFFF00000000003FF76
:10307000FFF801FF81FFFFFFFFF800F001FF0003F1
:10308000C3FFF80003FFFFE40FFFFFFFFFFFFFFF99
:10309000FF00FFFFFFF83FFFFFFFFFF80000000009
:1030A00003FFFFF800FF03FFFFFFFFFC000003FF2B
:1030B000C003C3FFF80003FFFFC00FFFFFFFFFFFC8
:1030C000FFFFFF00FFFFFFF83FFFFFFFFFF80000DB
:1030D000000003FFFFF8007F03FFFFFFFFFF00007A
:1030E0000FFFF003E1FFF80003FFFFE01FFFFFFF0A
:1030F000FFFFFFFEFF01FFFFFFF07FFFFFFFFFF875
:103100000000000007FFFFFE000007FFFFFFFFFFBA
:1031100080300FFFFC07E1FFF00003FFFFCF1FFF30
:10312000FFFFFFFFFFFE7F01FFFFFFF0FFFFFFFF3D
:10313000FFFC0000000007FFFFFF800007FFFFFF0C
:10314000FFFF803C1FFFFE0FE0FFE00003FFFFCF0B
:103150009FFFFFFFFFFFFFFE3E01FFFFFFF0FFFFAE
:10316000FFFFFFFC0000000007FFFFFFE0000FFF74
:10317000FFFFFFFFE03C1FFFFF8780FFC00003FF52
:10318000FF8F9FFFFFFFFFFFFFFC0000FFFFFFE13E
:10319000FFFFFFFFFFFC0000000007FFFFFFE0183C
:1031A0000FFFFFFFFFFFE00E3FFFFFC1001F81F891
:1031B00001FFFF071FFFFFFFFFFFFFFC0000FFFCF9
:1031C000FFC1FFFFFFFFFFFE000000000FFFFFFF3A
:1031D000F81C1FFFFFFFFFFFF07E3FFFFFF0000F17
:1031E00001F801FFFC071FFFFFFFFFFFFFFC0000CE
:1031F000FFFC1F03FFFFFFFFFFFE000000000FFFAB
:10320000FFFFF81E1FFFFFFFFFFFF83E1FFFFFF845
:103210001E0001F8000800071FFFFFFFFFFFFFF877
:1032200000007FF80003FFFFFFFFFFFF000000002A
:103230000FFFFFFFFC3E3FFFFFFFFFFFF8701FFF88
:10324000FFF81E0000F8000000001FFFFFFFFFFF57
:10325000FFF000003FF00003FFFFFFFFFFFF000053
:1032600000000FFFFFFFFE3F3FFFFFFFFFFFFC00DF
:103270000FFFFFF83F00007C000000001FFFFFFF72
:10328000FFFFFFE000001FE00003FFFFFFFFFFFF65
:10329000000000000FFFFFFFFE7F7FFFFFFFFFFF2B
:1032A000FC000FFFFFF83F000FFFFF0000301FFF83
:1032B000FFFFFFFFFFC3E00007000003FFFFFFFF6A
:1032C000FFFF000000000FFFFFFFFE7C7FFFFFFFFE
:1032D000FFFFFE0007FFFFF83F80FFFFFFF000F851
:1032E0001FFFFFFFFFFFFF07E03000003803FFFF75
:1032F000FFFFFFFF000000000FFFFFFFFF007FFF49
:10330000FFFFFFFFFE0003FFFFF03F83FFFFFFF81B
:1033100003FC1FFFFFFFFFFFFC07F0780000FC032A
:10332000FFFFFFFFFFFF000000000FFFFFFFFE0099
:10333000FFFFFFFFFFFFFE0001FFFFF07F8FFFFF9A
:10334000FFF807FE1FFFFFFFFFFFF007F0F8000187
:10335000FE03FFFFFFFFFFFF800000000FFFFFFFE6
:10336000FE00FFFFFFFFFFFFFE0000FFFFF0FF9FDB
:10337000FFFFFFF80FFF1FFFFFFFF83F8001F1FC89
:103380000003FE03FFFFFFFFFFFF800000000FFFB1
:10339000FFFFFE01FFFFFFFFFFFFFE0000FFFFE05A
:1033A000FF3FFFFFFFFC1FFF9FFFFFFFF800000034
:1033B000E1FC0003FE01FFFFFFFFFFFF80000000B4
:1033C0000FFFFFFFFC01FFFFFFFFFFFFFF1C01FFDF
:1033D000FFE07C7FFFFFFFFC1FFF9FFFFFFFF00070
:1033E0007000003C0403FE01FFFFFFFFFFFF8000B1
:1033F000000001FFFFFFFC01FFFFFFFFFFFFFF3E9B
:1034000001FFFFC0007FFFFFFFFC1FFFCFFFFFFF9B
:10341000F007FC0000180E07FE00FFFFFFFFFFFF94
:103420008000000000FFFFFFF801FFFFFFFFFFFF2C
:10343000FF1F01FFFFC000FFFFFFFFFC1FFFCFFFCB
:10344000FFFFF01FFE00E0000F07FF00FFFFFFFF80
:10345000FFFF80000000001FFFFFF003FFFFFFFFE2
:10346000FFFFFE1F01FFFF8C00FFFFFFFFFC1FFFA0
:10347000CFFFFFFFE03FFF01F0000F87FF803FFF1E
:10348000FFFFFFFF800000000007FFFFE103FFFFD9
:10349000FFFFFFFFFE3F01FFFF1F01FFFFFFFFFEDA
:1034A0001FFFC7FFFFFFE03FFF03F8001F8FFFC0B4
:1034B0003FFFFFFFFFFF800000000000FFFFC3830E
:1034C000FFFFFFFFFFFFFE3E01FFFF1F81FFFFFF2A
:1034D000FFFE0F1F83FFFFFFC03FFF03F0001F8FA2
:1034E000FFC00FFFFFFFFFFF80000000000007FF8D
:1034F00007C3FFFFFFFFFFFFFE3E01FFFE1F81FF2F
:10350000FFFFFFFE000F03FFFFFFC03FFF07F0F8C4
:103510001F07FFE003FFFFFFFFFF80000000000028
:10352000000003E3FFFFFFFFFFFFFC03F1FFFC0FC1
:1035300001FFFFFFFFFE000001FFFFFF801FFE0FE6
:10354000F1F80C03FFC0003C0FFFFFFF80000000FC
:103550000000000007E3FFFFFFFFFFFFFC03F1FF98
:10356000F80F01FFFFFFFFFE000000FFFFFF001F3D
:10357000F00FFBFC00007F8000000FFFFFFF8000CA
:1035800000000000000007E3FFFFFFFFFFFFF8035C
:10359000F0FFF00701FFFFFFFFFE0000007FFFFECE
:1035A000001FF00FFFF800000E0E000007FFFFFFE6
:1035B0000000000000003E000781FFFFFFFFFFFF4B
:1035C000F801F03FE00001FFFFFFFFFE0000003FB9
:1035D000FFFC000FE00FFC3D8000000F000007FF24
:1035E000FFFF000000000000FF000601FFFFFFFFDB
:1035F000FFFFF001E00F000079FFFFFFFFFE00007A
:10360000071FFFF0000FE003FC3FC00C000F00029B
:1036100007FFFFFF0000000000017FC00001FFFF67
:10362000FFF0FFFFE001E000000078FFFFFFFFFE7A
:1036300003C00F9FFFE01C0FE001FC03E01E000F22
:10364000800783FFFFFE000000000001FFC00000B4
:10365000FFFFFFF07FFF8000C0000003F8FFFFFFC7
:10366000FFFE07E00FFFFFC7FC07C0003003E00FBD
:10367000000F800FC1FFFFFC000000000003FFE00F
:10368000F800FFFFFFE01FFF000000000003F87FCD
:10369000FFFFFFFE0FE00FFE7E3FFE0180000003F4
:1036A000F01F001F801FE1FFFFFC0000000000076B
:1036B000FFFFFF007FFFFFE000E0000000000001CF
:1036C000F03FFFFFFFFE0FF00FFE00FFFF000E00B8
:1036D0000007E01F801F03FFE0FFFFF00000000075
:1036E0000007FFFFFF007FFFFF800000000FE00FDB
:1036F0000000F00FFFFFFFFE0FF00FFE01FFFF00C5
:103700007E000007C03F000007FFE0FFFFE0000071
:1037100000000007FFFFFF803FFFFF81F00000FF78
:10372000E01F8F000003FFFFFFFE0FF80FFE03FFF7
:10373000FF007E0F8101803E00000FFFE03FFFE0B1
:10374000000000000007FFFFFF801FFFFF07FC00D5
:1037500001FFF03FFF8000007FFFFFFE1FFF07F823
:1037600007FFFF807F1FDF80000000000FFFE01FCA
:10377000FFC0000000000007FFFFFFC00FFFFC07B5
:10378000FF000FFFF03FFF80000003FFFFFC1FFF63
:1037900003F00FFFFF807F1FFF80000000000FFF7E
:1037A000C00FFF00000000000007FFFFFFC007FF81
:1037B000F80FFF801FFFF83FFF80000003FFFFFCB2
:1037C0001FFF83E00FFFFF83EF1FFFC00000078094
:1037D0000FFFC001FC00000000000007FFFFFFC05A
:1037E00003FFE007FF803FFFF83FFF80000003FF7B
:1037F000FFFC1FFF80040FFFFF8FC61FFFC00000EC
:103800001F8007FFC0000000000000000007FFFF4E
:10381000FFC000FF8007FF807FFFF81FFF800000D0
:1038200003FFFFFC1FFF800F0FFFFF8FE01FFFC094
:103830000FC01F8003FF80000003C00000000003D2
:10384000FFFFFFC000000003FF807FFFFC1FFF00A1
:10385000000003FFFFF81FFF000F0FFFFFCFE01F67
:10386000FFC03FF01FC000FF8001800FF00000008C
:103870000003FFFFFFC000000001FF807FFFFC0F7F
:10388000FF00001FF1FFFFF807FE000F87FFFFC1D9
:10389000600FFF80FFF80FC0000F000FC01FF00087
:1038A00000000001FFFFFF8000000001FF007FFF1C
:1038B000FC07FE3C007FF9FFFFF80000001F83FFBC
:1038C000FFC0E007FF01FFF801800000070FC03FC5
:1038D000F80000010001FFFFFF00E3800001FF008E
:1038E0007FFFFC07FCFF80FFF9FFFFF80000001FCF
:1038F00080FFFFC08003FE07FFF8010000000FDF1C
:10390000C07FFC0000078000FFFFFE07E3E000012E
:10391000FF007FFFFC01F1FFC0FFF8FFFFF0000098
:10392000001F0003FF800E03FC1FFFFC00001C00B3
:103930001FFFC1FFFC00000F80007FFFFC07E7F0C6
:103940000000FE003FFFFC00E3FFE0FFF8FFFFE0A8
:10395000000000000003FF803FC0F03FFFF80000C0
:103960007F001FF1C3FFFC00000F80007FFFF80104
:10397000E3F00000FC001FFFFC0007FFE0FFF87F02
:10398000FFE0000000000001FF80FFF0607FFFF813
:103990007001FF003FF1C7FFF800000FC0007FFF7C
:1039A000F001E1F000003800077FFC000FFFE0FFAE
:1039B000F03FFFC003FF00000001FF01FFFC007F9C
:1039C000FFF9F807FF803FF007FFF800000FE00065
:1039D0003FFFE000E1E700000000001FFC001FFFC8
:1039E000E0FFC61FF7001FFFC0000000FE03FFFF3F
:1039F000003FFFF3F80FFFC03FE01FFFF000001F84
:103A0000E0001FFF800000CF800000001C1FFC00B2
:103A10001FFFE0FF87E7FC00FFFFE00000003C071E
:103A2000FFFF803FFFF3F81FFFE03C001FFFE000B7
:103A3000003FE0001FFF0000000F800003C03F1F99
:103A4000F8801FFFE0FF0FE1C100FFFFE7FF00006C
:103A50000007FFFFC03FFFC0787FFFF000003FFF7F
:103A6000E000003F800007F80000000FC0000FF8E2
:103A70003F0FF3C03FFFE07F8FE003C1FFFFF7FF81
:103A8000C0000007FFFFE01FFF8038FFFFF80000C5
:103A90001FFFE000001F000003C00000007FC00007
:103AA0003FFC3F03E1E03FFFC07F83C003C1FFFF56
:103AB000F7FFE0000007FFFFE01FFFC001FFFFFC72
:103AC00000000FFFF000000600000300000000FFF0
:103AD000C000FFFE1F0201E07FFFC03F03C003E103
:103AE000FFFFF7FFF0000007FFFFF00FFFC007FF29
:103AF000FFFE000007FFF8000000000000000000CB
:103B000000FFC000FFFF0E0C03F0FFFFC01E03808C
:103B100007E1FFFFEFFFF8000007FFFFF807FFE0F6
:103B20000FFFFFFF000007FFF800000007FFF00095
:103B3000007E00FFC001FFFF0E1F07F0FFFFF00037
:103B4000000007F1FFFFE7FFF8000007FFFFFC0799
:103B5000FFE01FFFFFFF800003FFFC0000000FFFDE
:103B6000F80003FF00FFCE03FFFF800F03C0FFFF3D
:103B7000F800000007C1FFFF8FFFF87E3C03FFFF46
:103B8000FE03FFE03FFFFFFF800001FFFC0000009D
:103B90003FFFF8001FFF007FCF03FFFF801F83015F
:103BA000FFFFF80007F00100FFFF0FFFF87FFE03A3
:103BB000FFFFFF03FFC03FFFFFFFC00000FFFC004F
:103BC0000000FFFFFC007FFF80000F03FFFF801F4E
:103BD0008001FFFFFC003FFF8000FFFC0FFFF0FFB4
:103BE000FF01FFFFFF01FFC07FFFFFFFC000003F9D
:103BF000F8000003FFFFFE00FFFF80001F87FFFFAC
:103C0000C03F0000FFFFFE007FFFF000FFF80FFF46
:103C1000E0FFFF00FFFFFF80FF80FFFFFFFFE000EE
:103C2000003FF0000007FFFFFF01FFFF80001F873C
:103C3000FFFFC01E00003FFFFE00FFFFFC007FFCF7
:103C40000FFE00FFFF007FFFFFC03F01FFFFFFFFF0
:103C5000E000000FE0000007FFFFFF03FFFFC000D0
:103C60003F07FFFFC000000E1FFFFE01FFFFFE0029
:103C70007FFC0FFC007FFF007FFFFFC00001FFFF04
:103C8000FFFFF000000700000007FFFFFF03FFFF3A
:103C9000C0000C07FFFFFFC0003F0FFFFC01FFFF4C
:103CA000FF003FFC0FF8007FFE00FFFFFF81800355
:103CB000FFFFFFFFF000000000000007FFFFFF070D
:103CC000FFFFC0000007FFFFFFF0007F07FFFC01C0
:103CD000FFFFFF803FFC0FF8003FFE01FFFFFF8F5B
:103CE000C1C3FFFFFFFFF800000000000007FFFF57
:103CF000FF07FFFFC0000007FFFFFFFC007F81FF01
:103D0000FF83FFFFFF801FF803F8001FFC01FFFF88
:103D1000FF1FC3E7FFFFFFFFFC00000000000007DC
:103D2000FFFFFE07FFFFE0C00007FFFFFFFE007F71
:103D3000807FFFF3FFFFFF800FF000F0001FF00314
:103D4000FFFFFE0FE3E7FFFFFFFFFC0000000000A6
:103D50000007FFFFFC03FFFFE0E00007FFFFFFFF9E
:103D600000FF801FE3F3FFFFFF8007E00000000F6C
:103D7000E003FFFFFC07E3E7FFFFFFFFFC001F80FE
:103D800000000003FFFFFDE3FFFFE1F80007FFFF76
:103D9000FFFF00FFA00003E1FFFFFF8003C0000062
:103DA00000038007FFFFFC01C7E7FFFFFFFFFC00E8
:103DB0003FC000000003FFFFF1E1FFFFE1F8000753
:103DC000FFFFFFFF80FFF00001F1FFFFFF80000019
:103DD000000000010007FFFFF800C7E3FFFFFFFF3F
:103DE000FC00FFE000000003FFFFE1F03FFFE1F80F
:103DF0000007FFFFFFFF80FFF80001C0FFFFFF800B
:103E00000000000000000007FFFFF0000103FFFFBB
:103E1000FFFFFC00FFF000000003FFFF01F001FFC7
:103E2000E3F80007FFFFFFFF80FFFC0001C03FFF3A
:103E3000FF000000001FC0000007FFFFE0040003B8
:103E4000FFFFFFFFFC01FFF800000003FFFF03F08E
:103E500001FFC1800607FFFFFFFF80FFFC0000009D
:103E60003FFFFF000000003FF0000787FFFFC00F8B
:103E70000003FFFFFFFFFC01FFF800000001FFFF50
:103E800003E000FFC0000787FFFFFFFF80FFF8008F
:103E900000000FFFFF00000000FFFC000FC7FFFF46
:103EA000803FC001FFFFFFFFF801FFFC00000001A1
:103EB000FFFF008000FF80000F87FFFFFFFF80FFF4
:103EC000F000000003FFFF00000000FFFC001FE700
:103ED000FFFF007FE000FFFF7FFFF801FFFC000015
:103EE0000000FFFF0000003F04000F83FFFFFFFF03
:103EF000FE1FF000000003FFFE00000001FFFF00B6
:103F00001FE1FFFC01FFF800FF7E3FFFF001FFFC17
:103F100000000000FFFF0000001C1FE00FC3FFFFB8
:103F2000FFFFFE000000000003FFFE00000003FF93
:103F3000FF003FE1FFF803FFFC003FFC1FFFF00321
:103F4000FFFE000000007FFF0003E0003FF01FC302
:103F5000FFFFFFFFFE000600000003FFFC00000063
:103F600003FFFF83FFE0FFE007FFFE001FE00EFFFF
:103F7000E03FFFFE000000003FFF001FF0007FF861
:103F80000F03FFFFFFFE3C000700000003FFFC00E3
:103F9000000007FFFF87FFE01F800FFFFF0000000A
:103FA00007FFC0FFFFFE000000001FFF003FF00002
:103FB000FFFC0001FFFFFFFC3C000780000003FF47
:103FC000F800000007FFFF87FFE000003FFFFF80D1
:103FD000300001FF81FFFFFE000000000FFE1C3FCC
:103FE000F000FFFE0001FFFFFFFC3C000780000027
:103FF00003FFF80000000FFFFFC7FFE000007FFF96
:10400000FFE0FC0000FF03FFFFFE0000000007FCD4
:104010000E3FF001FFFE0001FFFFFFF0180007C098
:10402000000001FFF80000000FFFFFC7FFE00000E5
:10403000FFFFFFF1FC0E000007FFFFFE0000000085
:1040400007F81F3FE001FFFF0000FFFFFFE0000057
:104050000F80000001FFE00000000FFFFFC7FFC05E
:104060000001FFFFFFF8FE0FE00007FFFFFE00006A
:10407000000000001FBF8081FFFF0000FFFFFF80E6
:1040800007F00F80000000FFE000000FFFFFFFC1FE
:10409000FFC00003FFFFFFFCF41FF0000FFFFFFE57
:1040A0000000000000003F9F87FFFFFF01C0FFFFEF
:1040B000FC001FFC040F000000FF8000003FFFFF1A
:1040C000FFC1FFC00007FFFFFFFE1C3FF8000FFF0E
:1040D000FFFE0000000000003F1F9FFFFFFF03E006
:1040E000FFFFE0001FFF000F8000003F000000FF07
:1040F000FFFFFFC01F00800FFFFFFFFF083FFC0016
:104100000FFFFFFE0000000000000C0FFFFFFFFF8D
:1041100007F003F000003FFFC01FC00000000000D8
:1041200000FFFFFFFFC00001C01FFFFFFFFF803F38
:10413000FE0007FFFFFE00000000000000073FFF39
:10414000FFFF0FF8000000003FFFE00FC00000007D
:10415000000001FFFFFFFFC00001E01FFFFFFFFFA6
:10416000807FFE0007FFFFFE00000000000000004F
:104170003FFFFFFF0FF8000000003FFFF00FE000DF
:104180000000000001FFFFFFFFC0C001F03FFFFF84
:10419000FFFFC07FFE0007FFFFFE0000000001F0F0
:1041A000F0007FFFFFFF1FFC0000000037FFFC0F47
:1041B000F0000000000003FFFFFFFFC1F003F07FED
:1041C000FFFFFFFFE07FFC0001FFFFFE000000009B
:1041D00001F9F0007FFFFFFE1FFC000000003FFF21
:1041E000FC3FF007F000000003FFFFFFFFC1F803F2
:1041F000F0FFFFFFFFFFF07FFC0001FFFFFC00006E
:10420000000003FFF8007FFFFFFE1FFC0001FFE03E
:104210001FFFFC3FF03FF800000007FFFFFFFFC358
:10422000FE03E1FFFFFFFFFFF87F8000007FFFFC40
:104230000000000003FFF8007FFFFFFE1F7C001F4F
:10424000FFE00FFFFC7FF1FFF800000007FFFFFF1A
:10425000FF83FF0101FFFFFFFFFFF83F0000007F2A
:10426000FFFC0000000003FFF8007FFFFFFE0C10C2
:1042700003FFFFF007FFF87FE7FFF800000003FFF0
:10428000FFFFFF87FF0003FFFFFFFFFFFC1C000095
:104290000007FF800000000003FFF8087FFFFFFC1D
:1042A00000003FFFFFF003FFF81F8FFFFC0000003E
:1042B00003FFFFFFFF87FF0007FFFFFFFFFFFC0873
:1042C0000000000000000000000001FFF01C3FFFA4
:1042D000FFFC0000FFFFFFF803FFF0161FFFFC00CC
:1042E000000003FFFFFFFF87FF0007FFFFFFFFFF47
:1042F000FC0000001F0000000000000001FFF03E75
:104300003FFFFFFC0007FFFFFFF803FFF0001FFF68
:10431000FE00000003FFFFFFFF87FE0007FFFFFF17
:10432000FFFFFE0000003FC000000000000000FF93
:10433000E07F1FFFFFF8001FFFFFFFF807FFF000FF
:104340003FFFFC00000001FFFFFFFF07C0000FFF61
:10435000FFFFFFFFFF000000FFF000000000000073
:10436000007F807F87FFFFF8003FFFFFFFFC07FF14
:10437000E3003FFFFE00000000FFFFFFFF01000021
:104380000FFFFFFFFFFFFF000E01FFFC000000001A
:104390000000003F807FC3FFFFF800FFFFFFFFFC2E
:1043A00007FFC3E03FFFFE00000000FFFFFFFF002C
:1043B00000000FFFFFFFFFFFFF003F01FFFF0000B6
:1043C00000000000001E007FE1FFFFF001FFFFFF83
:1043D000FFFE07FFC7F03FFFFE000000003FFFFFAA
:1043E000FF0000001FFFFFFFFFFFFF803F01FFFFF7
:1043F0000000000000000004007FE07FFFF003FFEA
:10440000FFFFFFFE07FF83F03FFFFF000000001FDC
:10441000FFFFFE0000001FFFFFFFFFFFFF803F01C7
:10442000FFFF8000000000000000007FE00FFFE0C1
:1044300007FFFFFFFFFF03FF01E00FFFFF0000008A
:10444000000FFFFFFE0000001FFFFFFFFFFFFF80C8
:104450007F01FFFFC000000000000000007FC001DE
:10446000FFE00FFFFFFFFFFF01FC01E00FFFFF0078
:1044700000000003FFFFFE3801FF1FFFFFFFFFFFEB
:10448000FF807FE1FFFFE000000000000000007FF0
:1044900080000FE01FFFFFFFFFFF00F801E001FFBA
:1044A000FF0000000000FFFFFC1C03FF9FFFFFFF59
:1044B000FFFFFF807FF0FFFFE00000000000000032
:1044C0001800000000001FFFFFFFFFFF80000080BA
:1044D000000FFF000000000007FFFC7C07FF9FFFAC
:1044E000FFFFFFFFFF807FF87FFFE000000000007C
:1044F00000001E00000000C03FFFFFFFFFFF800024
:1045000000000007FE0000000000000001FC07FFA3
:104510009FFFFFFFFFFFFF807FF81FFFC00000002D
:10452000000000001600000001E03FFFFFFFFFFF5A
:1045300080000F000003FE0000000000000001FCEE
:1045400007FF9FFFFFFFFFFFFF007FF81FFFC00077
:104550000000000000001F00000001F07FFFFFFFCF
:10456000FFFFC0180F800003F800000000000000EB
:1045700000FC03FF8FFFFFFFFFFFFF007FF01FFF27
:1045800080000000000000001F00000000F07FFF1E
:10459000FFFFFFFFC03C0FC00000F800000000005C
:1045A0000000000001FF8FFFFFFFFFFFFE003FE064
:1045B0001FFF80000000000000003F00000001F825
:1045C0007FFFFFFFFFFFC01E07C0000000000000CC
:1045D000000000000000007F87FFFFFFFFFFFE00DC
:1045E0001FC03FFF00000000000000003C00000072
:1045F00001F07FFFFFFFFFFFC03F078000000000CA
:104600000000000000000000003F87FFFFF9FFFFEF
:10461000FC0000003FFF0000000000000000000060
:10462000000001E07FFFFFFFFFFFE03F0F81E08020
:104630000000000000000007FC00007F07FFFFE013
:10464000FFFFFC0000003FFC000000000000000035
:104650000000000000007FFFFFFFFFFFE03F0203BC
:10466000F1F0000000000000000FFF00003F01FF1C
:10467000FFC03FFFF80000003FF80000000000000E
:1046800000000000000000007FFFFFFFFFFFE03C94
:104690000003FFF0000000000000000FFF80040C8A
:1046A00000FFFF803FFFF00000001FF80000000047
:1046B000000000000000000000007FFFFFFFFFFF80
:1046C000E0000007FFF8000000000000000FFF807E
:1046D0000F0000FFFF000FFFE00000000FE00000F0
:1046E0000000000000000000000001807FFFFFFFCD
:1046F000FFFFE0000007FFF8000000000000000FCF
:10470000FF801F80003FFC0007FFC000000007E0A3
:1047100000000000000000000000000007C07FFF54
:10472000FFFFFFFFE0000003FFF0000000000000BB
:10473000000FFF807FC0000F600000FF000000003E
:1047400002800000000000000000000000000FE0F8
:104750003FFFFFFFFFFFE0000003FFF0000000004D
:104760000000000FFF00FF600000000000000000DC
:10477000040000000000000000000000000000062F
:104780001FF03FFFFFFFFFFFE0000001FFE0000020
:1047900000000000000FFE01FFF000E0000000003C
:1047A00000000F00000000000000000000000000FA
:1047B000003FFFF83FFFFFFFFFFFE0000001FFE0C9
:1047C000000000000000000FF001FFF803F80000F7
:1047D000000000001F0000000000000000000000BA
:1047E000000000FFFFFC0FFFFFFFFFFFE0000000E5
:1047F000FF80000000000000000FE007FFFC03FE48
:104800000000000000007FBE00000000000000006B
:104810000000000000FFFFFC07FFFFFFFFFFE000BC
:1048200000007700000000000000000FE007FFFE1E
:1048300003FE0038000000007FFF000000000000C1
:1048400000000000000001FFFFFC01FFFFFFFFFF71
:10485000E00000003E000000000000000007C00F64
:10486000FFFF03FC00FF000000003FFF000000000E
:10487000000000000000000001FFFFF800FFFFFF44
:10488000FFFFE0000000180000000000000000032F
:10489000C01FFFFF03F401FF800000003FFF000086
:1048A0000000000000000000000001FFFFF8000F02
:1048B000E0FFFFFFE000000000000000000000003B
:1048C0000000001FFFFF83E007FFE00000003FFF44
:1048D00000000000000000000000000001FFFFF8E1
:1048E000000001FFFFFFE0000000000000000000EA
:1048F00000000000003FFFFF83E007FFF80000001A
:104900001FFF00000000000000000000000000FF8A
:10491000FFF0000001FFFFFFE000000000000000CA
:10492000000000000000003FFFFF81C007FFFC0007
:1049300000001FFE0000000000000000000000005A
:1049400000FFFFF0000001FFFFFFE000000000009B
:104950000000000000000000003FFFFF80C007FFD4
:10496000FF0000001FFE000000000000000000002B
:104970000000007FFFE0000000FFFFFFC00000001C
:1049800000000000000000000000001FFFFF80008A
:1049900007FFFF80000007F8000000000000000093
:1049A00000000000001FFFC0000380FFFFFFC0E009
:1049B000000000000000000000000000001FFFFFDA
:1049C000000007FFFF80000007E00000000000007B
:1049D000000000000000000FFFC0000FC07FFFFFBD
:1049E00081FB800000000000000000000000000FBC
:1049F000F1FF000003FFFF80000002000000000044
:104A000000000000000000000007FF80001FE03FE2
:104A1000FFFF01FF80000000000000000000000018
:104A20000007E0FE000701FFFF800000000000001B
:104A3000000000000000000000000003FF00001F55
:104A4000E01FFFFF01FFC0000000000000000000A9
:104A5000000000028038007F80FFFF00000000009F
:104A60000000000000000000000000000000FF0047
:104A70000037E00FFFFE01FFC00000000000000053
:104A8000000000000000000000FFC03FFF00000029
:104A90000000000000000000000000000000000016
:104AA0003C00003FE007FFFC01FF80000000000029
:104AB0000000000000000000000001FFC03FFE00F9
:104AC00000000000000000000000000000000000E6
:104AD00000000400006FE007FFF800FF8000000006
:104AE00000000000000000000000000001FFC0FF07
:104AF000FC000000000000000000000000000000BA
:104B0000000000000000007FF001FFE000FF000057
:104B1000000000000000000000000000000000FF96
:104B200000FFFC000000000000000000000000008A
:104B30000000000000000000005FF8007F80007EA1
:104B40000000000000000000000000000000000065
:104B500000FE00FFFC00000000000000000000005C
:104B600000000000000000000000007FFC001D00AD
:104B70000010000000000000000000000000000025
:104B8000000000FE00FFF800000000000000000030
:104B90000000000000000000000000000077FC00A2
:104BA0000000000000000000000000000000000005
:104BB0000000000000FE00FFF00000000000000008
:104BC0000000000000000000000000000000007F66
:104BD000FC000000000000000000000000000000D9
:104BE000000000000000003C00FFF000000000009A
:104BF00000000000000000000000000000000000B5
:104C0000001FFC0000000000000000000000000089
:104C10000000000000000000003C007FC000000019
:104C20000000000000000000000000000000000084
:104C300000000003F0000000000000000000000081
:104C4000000000000000000000000000003FC00065
:104C50000000000000000000000000000000000054
:104C6000000000000000A0000000000000000000A4
:104C70000000000000000000000000000000001E16
:104C80000000000000000000000000000000000024
:104C90000000000000000000000000000000000014
:104CA0000000000000000000000000000000000004
:104CB00000000000000000000000000000000000F4
:104F30000000000000080000000000000000000069
:104F40000000000000000000000000000000000061
:104F50000000000000000000000000000000000051
:104F6000000000000000000E000000000000000033
:104F70000000000000000000000000000000000031
:104F80000000000000000000000000000000000021
:104F90000000000000000003800FC00000000000BF
:104FA0000000000000000000000000000000000001
:104FB00000000000000000000000000000000000F1
:104FC00000000000000000000003FFFFC000000020
:104FD00000000000000000000000000000000000D1
:104FE00000000000000000000000000000000000C1
:104FF000000000000000000000000003FFFFE000D0
:1050000000000000000000000000000000000000A0
:105010000000000000000000000000000000000090
:105020000000000000000000000000000001FFFF81
:10503000E000000000000000000000000000000090
:105040000000000000000000000000000000000060
:10505000000000000000000000000000000000014F
:10506000FFFFF8000000000000000000000000004A
:105070000000000000000000000000000000000030
:105080000000000000000000000000000000000020
:105090000000FFFFFF000000000000000000000013
:1050A0000000000000000000000000000000000000
:1050B00000000000000000000000000000000000F0
:1050C00000000000FFFFFF000000000000000000E3
:1050D00000000000000000000000000000000000D0
:1050E00000000000000000000000000000000000C0
:1050F0000000000000007FFFFF80000000000000B3
:10510000000000000000000000000000000000009F
:10511000000000000000000000000000000000008F
:1051200000000000000000007FFFFFC00000000042
:10513000000000000000000000000000000000006F
:10514000000000000000000000000000000000005F
:10515000000000000000000000007FFFFFF00000E2
:10516000000000000000000000000000000000003F
:10517000000000000000000000000000000000002F
:105180000000000000000000000000007FFFFFFCA6
:10519000000000000000000000000000000000000F
:1051A00000000000000000000000000000000000FF
:1051B00000000000000000000000000000007FFF71
:1051C000FFFF0000000000000000000000000000E1
:1051D00000000000000000000000000000000000CF
:1051E00000000000000000000000000000000000BF
:1051F0007FFFFFFF00000000000000000000000033
:10520000000000000000000000000000000000009E
:10521000000000000000000000000000000000008E
:1052200000007FFFFFFF8080000000000000000002
:10523000000000000000000000000000000000006E
:10524000000000000000000000000000000000005E
:1052500000000000FFFFFFFFFFE000000000000073
:10526000000000000000000000000000000000003E
:10527000000000000000000000000000000000002E
:10528000000000000000FFFFFFFFFFF8000000002B
:10529000000000000000000000000000000000000E
:1052A00000000000000000000000000000000000FE
:1052B0000000000000000001FFFFFFFFFFFE0000F4
:1052C00000000000000000000000000000000000DE
:1052D00000000000000000000000000000000000CE
:1052E00000000000000000000003FFFFFFFFFFFFC1
:1052F00000000000000000000000000000000000AE
:10530000000000000000000000000000000000009D
:1053100000000000000000000000000FFFFFFFFF82
:10532000FFFFC000000000000000000000000000BF
:10533000000000000000000000000000000000006D
:1053400000000000000000000000000007FFFFFF59
:10535000FFFFFFFFF8000000000000000000000059
:10536000000000000000000000000000000000003D
:10537000000000000000000000000000003FFFFFF0
:10538000FFFFFFFFFFFFFF00000000000000000024
:10539000000000000000000000000000000000000D
:1053A000000000000000000000000000000001FFFD
:1053B000FFFFFFFFFFFFFFFFFFF000000000000006
:1053C00000000000000000000000000000000000DD
:1053D00000000000000000000000000000000000CD
:1053E0000FFFFFFFFFFFFFFFFFFFFFFE00000000BA
:1053F00000000000000000000000000000000000AD
:10540000000000000000000000000000000000009C
:1054100000007FFFFFFFFFFFFFFFFFFFFFFFC00058
:10542000000000000000000000000000000000007C
:10543000000000000000000000000000000000006C
:1054400000000000FFFFFFFFFFFFFFFFFFFFFFFF68
:10545000E00000000000000000000000000000006C
:10546000000000000000000000000000000000003C
:10547000000000000003FFFFFFFFFFFFFFFFFFFF33
:10548000FFFFF0000000000000000000000000002E
:10549000000000000000000000000000000000000C
:1054A000000000000000000FFFFFFFFFFFFFFFFFF5
:1054B000FFFFFFFFFC0000000000000000000000F4
:1054C00000000000000000000000000000000000DC
:1054D0000000000000000000003FFFFFFFFFFFFF93
:1054E000FFFFFFFFFFFFFE000000000000000000C4
:1054F00000000000000000000000000000000000AC
:1055000000000000000000000000007FFFFFFFFF20
:10551000FFFFFFFFFFFFFFFFFF8000000000000014
:10552000000000000000000000000000000000007B
:1055300000000000000000000000000003FFFFFF6B
:10554000FFFFFFFFFFFFFFFFFFFFFFE00000000086
:10555000000000000000000000000000000000004B
:10556000000000000000000000000000000007FF35
:10557000FFFFFFFFFFFFFFFFFFFFFFFFFFF8000040
:10558000000000000000000000000000000000001B
:10559000000000000000000000000000000000000B
:1055A0000FFFFFFFFFFFE001FFFFFFFFFFFFFFFC1B
:1055B00000000000000000000000000000000000EB
:1055C00000000000000000000000000000000000DB
:1055D00000003FFFFFFFFE000000003FFFFFFFFF56
:1055E000FFFF0000000000000000000000000000BD
:1055F00000000000000000000000000000000000AB
:1056000000000000FFFFFFFFC00000000001FFFFDF
:10561000FFFFFFFFC00000000000000000000000CE
:10562000000000000000000000000000000000007A
:10563000000000000003FFFFFFFC0000000000006E
:105640000FFFFFFFFFFFE000000000000000000070
:10565000000000000000000000000000000000004A
:105660000000000000000007FFFFFFC00000000076
:10567000000001FFFFFFFFFFF80000000000000036
:10568000000000000000000000000000000000001A
:105690000000000000000000000FFFFFFE000000FF
:1056A00000000000003FFFFFFFFFFE0000000000C1
:1056B00000000000000000000000000000000000EA
:1056C00000000000000000000000003FFFFFF000AD
:1056D0000000000000000007FFFFFFFFFFC0000008
:1056E00000000000000000000000000000000000BA
:1056F000000000000000000000000000007FFFFF2D
:10570000C0000000000000000000FFFFFFFFFFF0EE
:105710000000000000000000000000000000000089
:105720000000000000000000000000000000007FFA
:10573000FFFE000000000000000000001FFFFFFF50
:10574000FFFC00000000000000000000000000005E
:105750000000000000000000000000000000000049
:1057600000FFFFF80000000000000000000007FF3D
:10577000FFFFFFFE0000000000000000000000002E
:105780000000000000000000000000000000000019
:10579000000001FFFFE0000000000000000000002A
:1057A00001FFFFFFFFFE00000000000000000000FE
:1057B00000000000000000000000000000000000E9
:1057C0000000000001FFFF8000000000000000005A
:1057D0000000007FFFFFFFFF00000000000000004E
:1057E00000000000000000000000000000000000B9
:1057F00000000000000001FFFE00000000000000AB
:1058000000000000001FFFFFFFFF0000000000007D
:105810000000000000000000000000000000000088
:10582000000000000000000000FFF8000000000081
:105830000000000000000001FFFFFFFF80000000EB
:105840000000000000000000000000000000000058
:1058500000000000000000000000007FF0000000D9
:1058600000000000000000000000FFFFFFFF8000BC
:105870000000000000000000000000000000000028
:10588000000000000000000000000000007FC000D9
:105890000000000000000000000000007FFFFFFF8C
:1058A000C000000000000000000000000000000038
:1058B0000000000000000000000000000000007F69
:1058C00080000000000000000000000000003FFF1A
:1058D000FFFFE000000000000000000000000000EA
:1058E00000000000000000000000000000000000B8
:1058F000007F000000000000000000000000000029
:1059000007FFFFFFE00000000000000000000000B3
:105910000000000000000000000000000000000087
:105920000000007C000000000000000000000000FB
:10593000000003FFFFFFE000000000000000000087
:105940000000000000000000000000000000000057
:105950000000000000F8000000000000000000004F
:105960000000000000FFFFFFE0000000000000005A
:105970000000000000000000000000000000000027
:1059800000000000000000F0000000000000000027
:10599000000000000000007FFFFFF000000000009A
:1059A00000000000000000000000000000000000F7
:1059B000000000000000000000E000000000000007
:1059C0000000000000000000003FFFFFF8000000A2
:1059D00000000000000000000000000000000000C7
:1059E0000000000000000000000001800000000036
:1059F00000000000000000000000001FFFFFFC008E
:105A00000000000000000000000000000000000096
:105A10000000000000000000000000000300000083
:105A2000000000000000000000000000000FFFFF69
:105A3000FE00000000000000000000000000000068
:105A400000000000000000000000000000000E0048
:105A50000000000000000000000000000000000145
:105A6000FFFFFF0000000000000000000000000039
:105A70000000000000000000000000000000000026
:105A80001C000000000000000000000000000000FA
:105A90000000FFFFFF800000000000000000000089
:105AA00000000000000000000000000000000000F6
:105AB00000003800000000000000000000000000AE
:105AC000000000007FFFFFC0000000000000000099
:105AD00000000000000000000000000000000000C6
:105AE0000000000070000000000000000000000046
:105AF0000000000000003FFFFFE000000000000089
:105B00000000000000000000000000000000000095
:105B1000000000000000E0000000000000000000A5
:105B2000000000000000000007FFFFF80000000078
:105B30000000000000000000000000000000000065
:105B40000000000000000001C00000000000000094
:105B50000000000000000000000003FFFFFC000048
:105B60000000000000000000000000000000000035
:105B700000000000000000000003800000000000A2
:105B800000000000000000000000000001FFFFFE18
:105B90000000000000000000000000000000000005
:105BA00000000000000000000000000300000000F2
:105BB000000000000000000000000000000000FFE6
:105BC000FFFF800000000000000000000000000057
:105BD00000000000000000000000000000030000C2
:105BE00000000000000000000000000000000000B5
:105BF000003FFFFFE0000000000000000000000088
:105C00000000000000000000000000000000000094
:105C10000000000000000000000000000000000084
:105C20000000001FFFFFF060000000000000000007
:105C30000000000000000000000000000000000064
:105C40000000000000000000000000000000000054
:105C500000000000000FFFFFF878000000000000C7
:105C60000000000000000000000000000000000034
:105C70000000000000000000000000000000000024
:105C80000000000000000007FFFFFC3C00000000D7
:105C90000000000000000000000000000000000004
:105CA00000000000000000000000000000000000F4
:105CB00000000000000000000003FFFFFE3E0000A7
:105CC00000000000000000000000000000000000D4
:105CD00000000000000000000000000000000000C4
:105CE000000000000000000000000001FFFFFFFEB8
:105CF00000000000000000000000000000000000A4
:105D00000000000000000000000000000000000093
:105D10000000000000000000000000000000FFFF85
:105D2000FFFF000000000000000000000000000075
:105D30000000000000000000000000000000000063
:105D40000000000000000000000000000000000053
