:100F5D0075A15575A1AA53B9BF43B98075A1557532
:0E0F6D00A1AAE5B954F84405F5B9E4F5A122AE
:10100900EF4E600D05A105A105A1EF1F70F21E802D
:02101900EF22C4
:100FAF00AD07AC06ED4C600E7FE87E03121009ED25
:070FBF001D70F11C80EE2201
:04106F0043C6102242
:100D2A00C29FD29EC29DC2CDC2CC43878090013D54
:100D3A0012094E00000411E47B0AFAF9F890013D09
:100D4A00E0FCA3E0FDA3E0FEA3E0FF1208B09001DF
:100D5A0041EBF090013DE0FCA3E0FDA3E0FEA3E03F
:100D6A00FFE47B0AFAF9F81208B090013D12094231
:100D7A00900141E0C39405401F90013DE0FCA3E0CF
:100D8A00FDA3E0FEA3E02401FFE43EFEE43DFDE412
:100D9A003CFC90013D120942E589540F4420F58933
:100DAA0043C9A090013DA3A3A3E0F404F58DD28E1C
:040DBA00D299D29C5C
:010DBE002212
:080003003098FDC298AF99226C
:081050008F993099FDC299222D
:0A103C00C2C7D2C5D2C475C2982203
:0810580030C0FDC2C0AFC1228F
:081060008FC130C1FDD2C12295
:100FC60075A15575A1AAEF600543B101800353B120
:070FD600FEE4F5A1F5FF2286
:031073008FFF22CA
:0A10460075A15575A1AA43B110224F
:10101B00ABE243E2B07F017E00120FAFAF038FE272
:01102B0022A2
:100C360005010906A101050719E029E715002501A7
:100C46007501950881029501750881019503750165
:100C5600050819012903910295057501910195066B
:100C6600750826FF000507190029918100C0050CAB
:100C76000901A101150025010AEA000AE9000AE2B4
:100C8600000A8A010A83010A23020ACD000AB60075
:100C96000AB5000AB7000A00000A00000A00000AA6
:100CA60000000A00000A00000A00000A00000A000C
:100CB600000A00000A00000A00000A00000A1122C9
:100CC60075019518810205011900298315002583F0
:100CD600750895018100C012011001000000083D51
:100CE600413A5500000000000109023B00020101E3
:100CF600A06409040000010301010009211101009B
:100D060001223E000705810308000A0904010001CB
:100D16000300000009210001000122690007058285
:040D26000304000AB8
:100FDD0048011F000000000000000044013800001F
:020FED00000002
:100E4B00C2EAE4F5E275ED0075EC0075EF0075EEA6
:100E5B000A75E50075E45075EA67E5EB54FE44044A
:100E6B00F5EB75DC0275D24275D412E4F5E375D15E
:100E7B008075E22943D10175D8FF75E10775A10192
:080E8B0043A980F5A1D2EA227F
:100F7B00780A7C007D017B017A01791F7E007F0856
:0A0F8B0012081F75D30853D2FC2290
:100F950078507C007D017B017A0179387E007F04E1
:0A0FA50012081F75D50453D4FC2276
:0300430002004672
:0D004600C0E0C0F0C083C082C0D075D008FB
:1000530020D9030203C0E5D9543F700302039C2453
:10006300E0700302032B14601824F16028240E604F
:10007300030203BE75D500E5D454FC4402F5D480D5
:100083000B75D300E5D254FC4402F5D290012974D8
:1000930001F00203BE9000F5E5DBF0E064086003C5
:1000A3000202FE900006E090012BF0900007E07042
:1000B3000990012BE0D3947F400690012B747FF0CD
:1000C3009000F5E4F0900001E090012CF090000026
:1000D300E05460601A90012CE01424FD40030203F5
:1000E3000424FB24FD400302030480000202FE906B
:1000F300012CE0B40B0040030202FC900105F82838
:1001030028730202DF02022F0202FC0202690202CA
:10011300FC0201FC0201260202FC02020702022485
:10012300020304900003E024FE601E24E0603024F8
:1001330021706990013574FFF0A3740CF0A374DD92
:10014300F09000F57412F0805990013574FFF0A31C
:10015300740CF0A374EFF09000F5743BF0804390BF
:100163000004E0FF701490013574FFF0A3740CF0E9
:10017300A37436F09000F5743EF0EFB4011C9001C7
:100183003574FFF0A3740CF0A37474F09000F5744D
:1001930069F090013C7401F0800880009000F574D0
:1001A300FFF09000F5E0FF90012BE0D39F4002EFBA
:1001B300F090012BE0FFC3940840047F0880009077
:1001C30000F5EFF07E0078007C007D01900135E0C2
:1001D300FBA3E0FAA3E0F912081F90012BE0FF90C4
:1001E30000F5E0FEC3EF9E90012BF0EEFF90013689
:1001F300E48FF012085E020304900002E090012BEA
:10020300F0020304900127E0900000F090012BE03E
:10021300C3940150030203049000F57401F0020338
:1002230004900002E0900127F0020304900000E034
:10023300541F6402702D900004E014601D2480603C
:100243000E14701CE5D454BC4402F5D4020304E537
:10025300D254BC4402F5D202030453D27302030402
:100263000202FE0202FE900000E0541FFD701B908C
:100273000003E0FE900002E0FBEB64014E70099086
:100283000CF69320E57B80738071ED6402704B90D4
:100293000003E0FE900002E0FDED4E703B90000590
:1002A300E0FE900004E0FDEDFFEE702AEF24FE6017
:1002B300112481601714701EE5D454BF4403F5D490
:1002C300803FE5D4547F440CF5D48035E5D254BF48
:1002D3004403F5D2802B80238021801F900000E40B
:1002E300F0A3F090012BE0FFC394029000F54005CA
:1002F3007402F0800CEFF0800880009000F574FF2A
:10030300F09000F5E0FFB4FF0C90012C74FFF07542
:10031300DCCF0203BEEFD3940850048FDD80037556
:10032300DD0075DCC00203BE90012CE024FB6053AA
:1003330014705E90012BE0FFC3940840047F088093
:10034300009000F5EFF07E0078007C007D019001C5
:1003530035E0FBA3E0FAA3E0F912081F90012BE0BC
:10036300FF9000F5E0FEC3EF9E90012BF0EEFF90AF
:100373000136E48FF012085E9000F5E0F5DD63DCF2
:10038300408038E5E35480FF90012BE04FF5E38094
:100393000375DD0075DC0280229000F5E5DBF0904B
:1003A300012CE0B4090F9000F5E0B40108900000BF
:1003B300E090012AF075DD0075DC00C2D930D81257
:1003C30075DC0275D21075D41275E300C2DAC2D996
:0C03D300C2D830DA04C2DA800375D8FF0B
:0B03DF00D0D0D082D083D0F0D0E0322C
:100E9300C28CE4900129F0120F7B900129E060FAE3
:100EA300E4F0FE7F08FD7B017A01791F12097F12AE
:0B0EB3000F7B900129E060FAD28C2236
:100EBE00C28CE4900129F0120F95900129E060FA9E
:100ECE00E4F0FE7F04FD7B017A01793812097F126E
:0B0EDE000F95900129E060FAD28C22F1
:10102C00434D44006563686F204861486148610026
:040FEF00410090002D
:100FF400E58954F14401F589758CFC758A17C28D15
:05100400D2A9D28C22EC
:0D000E0090011F7402F0E4900121F07F01C9
:10001B00EF14600E04701990013CE06010120EBEDC
:10002B00800E90013CE06005120E938003120E4B84
:07003B007F147E00020FAFED
:100F3B00120F5D120FF4120E4BD2AFE4F5D3F5D5B1
:100F4B00900129F090013CF090012A04F0F587C242
:020F5B00B422BE
:100EE90012000E7FF47E01120FAF12000E7FF47E06
:100EF90001120FAFE490011FF09001217439F07FC6
:0B0F09000112001B7FF47E01020FAFFD
:060A30007B017A007991C0
:100A36009000F7EBF0A3EAF0A3E9F09000F7E0FBF3
:100A4600A3E0FAA3E0F9120845FF7003020B2DC3D9
:100A5600648094BA5012EF648094B0400B90011FEA
:100A66007402F0EF24ED80449000F7E0FBA3E0FA77
:100A7600A3E0F9120845B4300E90011F7402F090FD
:100A860001217427020B1A9000F7E0FBA3E0FAA3FA
:100A9600E0F9120845FFC3648094DB5014EF6480CC
:100AA60094C0400DE490011FF0EF24C39001218013
:100AB600639000F7E0FBA3E0FAA3E0F9120845FF14
:100AC600C3648094FB5015EF648094E0400E90015F
:100AD6001F7402F0EF24A390012180389000F7E004
:100AE600FBA3E0FAA3E0F9120845B4200CE4900158
:100AF6001FF0900121742C801B9000F7E0FBA3E00F
:100B0600FAA3E0F9120845B42D10E490011FF09005
:100B16000121742DF07F0112001B9000F8E475F09E
:100B26000112085E020A41E490011FF0900121744F
:070B360028F07F0102001B03
:100B3D00120F3B90013CE0700B7FF47E01120FAF62
:100B4D00B2B480EFC2B47FF47E01120FAF120EE982
:100B5D007FE87E03120FAF90011F7408F090012102
:100B6D007415F07F0112001B9000FA74FFF0A3744E
:100B7D0010F0A3742CF07B017A00799112044F12BE
:100B8D000A307FF47E01120FAF9000FA74FFF0A3CC
:100B9D007410F0A37430F07B017A00799112044F38
:100BAD00120A307FC87E00120FAF9000FA74FFF06A
:100BBD00A37410F0A37430F07B017A0079911204C4
:100BCD004F120A307FC87E00120FAF9000FA74FFEB
:100BDD00F0A37410F0A37430F07B017A00799112B8
:100BED00044F120A307FC87E00120FAF9000FA74C6
:100BFD00FFF0A37410F0A37430F07B017A007991AB
:100C0D0012044F120A307FC87E00120FAF9000FA07
:100C1D0074FFF0A37410F0A37430F07B017A0079A7
:090C2D009112044F120A3080FEFE
:03000B0002106878
:07106800758CFC758A17323C
:03000000020DBF2F
:0C0DBF00787FE4F6D8FD758121020E0655
:10074F00E709F608DFFA8046E709F208DFFA803E8C
:10075F0088828C83E709F0A3DFFA8032E309F60879
:10076F00DFFA8078E309F208DFFA807088828C83E1
:10077F00E309F0A3DFFA806489828A83E0A3F60895
:10078F00DFFA805889828A83E0A3F208DFFA804C6F
:10079F0080D280FA80C680D4806980F28033801046
:1007AF0080A680EA809A80A880DA80E280CA8033AF
:1007BF0089828A83ECFAE493A3C8C582C8CCC58327
:1007CF00CCF0A3C8C582C8CCC583CCDFE9DEE780F7
:1007DF000D89828A83E493A3F608DFF9ECFAA9F076
:1007EF00EDFB2289828A83ECFAE0A3C8C582C8CCCC
:1007FF00C583CCF0A3C8C582C8CCC583CCDFEADEE5
:10080F00E880DB89828A83E493A3F208DFF980CC46
:10081F0088F0EF60010E4E60C388F0ED2402B4043F
:10082F000050B9F582EB2402B4040050AF232345E6
:06083F00822390079F7365
:10084500BB010689828A83E0225002E722BBFE02B1
:09085500E32289828A83E49322E4
:10085E00C5F0F8A3E028F0C5F0F8E5821582700225
:06086E001583E038F022C2
:1008740075F008758200EF2FFFEE33FECD33CDCC3B
:1008840033CCC58233C5829BED9AEC99E5829840BE
:100894000CF582EE9BFEED9AFDEC99FC0FD5F0D69B
:1008A400E4CEFBE4CDFAE4CCF9A88222B800C1B9C5
:1008B4000059BA002DEC8BF084CFCECDFCE5F0CB03
:1008C400F97818EF2FFFEE33FEED33FDEC33FCEB3C
:1008D40033FB10D703994004EB99FB0FD8E5E4F9F7
:1008E400FA227818EF2FFFEE33FEED33FDEC33FCE4
:1008F400C933C910D7059BE99A4007EC9BFCE99AD8
:10090400F90FD8E0E4C9FAE4CCFB2275F010EF2F1C
:10091400FFEE33FEED33FDCC33CCC833C810D7071C
:100924009BEC9AE899400AED9BFDEC9AFCE899F857
:0E0934000FD5F0DAE4CDFBE4CCFAE4C8F922EA
:0C094200ECF0A3EDF0A3EEF0A3EFF02228
:10094E00A8828583F0D083D08212096512096512C0
:10095E000965120965E473E493A3C583C5F0C583E5
:10096E00C8C582C8F0A3C583C5F0C583C8C582C8F3
:01097E002256
:1003EA00E51024FAF582E43400F583E00510229042
:1003FA0000F73007039000FAE475F0011209EA02E7
:10040A0008452000E97F2ED2008018EF540F24906F
:10041A00D43440D4FF30040BEF24BFB41A00500385
:10042A002461FFE511600215110514E51470020537
:10043A001330070E9000F7E475F0011209EAEF0293
:10044A0009D8020F147403D2078003E4C207F51017
:10045A009000F7120A01E4F511F513F514E511609D
:10046A00077F2012042D80F57512FFC201C200C257
:10047A0002C203C205C206C2081203F9FF700D3098
:10048A0007057F0012043EAF14AE1322B4255FC2E3
:10049A00D5C2041203F9FF24D0B40A00501A75F029
:1004AA000A781130D50508B6FF0106C6A426F6203B
:1004BA00D5047002D20380D924CFB41A00EF5004B5
:1004CA00C2E5D20402063FD20180C6D20080C0D261
:1004DA000280BCD2D580BAD20580B47F2012042D06
:1004EA002002077401B5110040F11203EAFF120459
:1004FA002D020467D208D20680951203EAFB120382
:10050A00EAFA1203EAF94A4B700679107A077BFF76
:10051A0020022EE511602A7E008E82758300120960
:10052A00AB60060EEE651270F0C2D5EBC0E0EAC011
:10053A00E0E9C0E0EE120686D0E0F9D0E0FAD0E0B9
:10054A00FB120845FF60AAEBC0E0EAC0E0E9C0E0A0
:10055A0012042DD0E02401F9D0E03400FAD0E0FBF7
:10056A00E5120460DCD512D980877BFF7A0679828E
:10057A00D202809C791080027908C206C2088008DB
:10058A00D2D5790A8004790AC2D5E512047002F537
:10059A0012E4FAFDFEFF1203EAFC7B0820011312A3
:1005AA0003EAFD7B1030000A1203EAFE1203EAFF97
:1005BA007B20EC3382D592D55013C3E43000069FDA
:1005CA00FFE49EFEE42001039DFDE49CFCE4CBF8DD
:1005DA00C201EC700CCFCECDCCE824F8F870F380D1
:1005EA0017C3EF33FFEE33FEED33FDEC33FCEB3391
:1005FA00FB994002FB0FD8E9EB300105F8D0E0C4C3
:10060A0048B201C0E00AEC4D4E4F78207B0070C220
:10061A00EAB5120040BCC0E0120688D0F0D0E02053
:10062A000104C4C0E0C4B201C0F0120416D0F0D56F
:10063A00F0EB020467120A0A050453057E5804D532
:10064A004C04D14205824F058A44058A4904EA438B
:08065A00059055057446057476
:100662004505744707305004D92D04DD2E05002BB3
:1006720004E12304FE2007192A049948000004F823
:100682003F3F3F00790AA2D5200314300509B91073
:10069200020404B9080104A2D52006025001042074
:1006A20002689202B511005034C0E07F2030031975
:1006B2007F30A20272067205500F1206DFC202C21A
:1006C20006C205C2087F30800F300503E9C0E01280
:1006D200042D300503D0E0F9D0E0B511CC30051778
:1006E2007F30B9100C12042D7F583004077F7880B8
:1006F20003B9080312042D3002057F2D02042D7F59
:10070200202008F87F2B2006F322920280CF286E49
:10071200756C6C2900D2011203EA3001F8C201782B
:100722001130D50108F60204992D5043495812039D
:10073200EA2403B405004001E490072B9312041E3F
:0D074200743A12041ED20375110402057EE4
:10097F00EF4E6012EF60010EEDBB010B89828A838F
:10098F00F0A3DFFCDEFA2289F05007F709DFFCA99C
:0C099F00F022BBFEFCF309DFFCA9F022F3
:100DCB00020B3DE493A3F8E493A34003F68001F2F6
:100DDB0008DFF48029E493A3F85407240CC8C33329
:100DEB00C4540F4420C8834004F456800146F6DFF8
:100DFB00E4800B0102040810204080900FDDE47E9C
:100E0B00019360BCA3FF543F30E509541FFEE493EC
:100E1B00A360010ECF54C025E060A840B8E493A3B3
:100E2B00FAE493A3F8E493A3C8C582C8CAC583CADE
:100E3B00F0A3C8C582C8CAC583CADFE9DEE780BE96
:010FF30000FD
:1009AB00BB010CE58229F582E5833AF583E0225001
:1009BB0006E92582F8E622BBFE06E92582F8E2224B
:0D09CB00E58229F582E5833AF583E4932265
:1009D800BB010689828A83F0225002F722BBFE01FE
:0209E800F322F8
:1009EA00F8E0FBA3A3E0F925F0F0E5821582700296
:0709FA001583E0FA38F0223A
:090A0100EBF0A3EAF0A3E9F022F6
:100A0A00D083D082F8E4937012740193700DA3A37B
:100A1A0093F8740193F5828883E47374029368608F
:060A2A00EFA3A3A380DF8F
:100F1400EFB40A07740D120F1F740A309811A899C0
:100F2400B8130CC2983098FDA899C298B811F6303D
:070F340099FDC299F5992215
:00000001FF
