:1024170075A15575A1AAE5B954F84405F5B9E4F5D0
:02242700A122F0
:10242900EF4E600D05A105A105A1EF1F70F21E80F9
:02243900EF2290
:1023D400AD07AC06ED4C600E7FE87E03122429EDB8
:0723E4001D70F11C80EE22C8
:0424860043C6102217
:101F2500C29FD29EC29DC2CDC2CC4387809002D3B0
:101F350012080C00000056E47B0AFAF9F89002D367
:101F4500E0FCA3E0FDA3E0FEA3E0FF12074F900233
:101F5500D7EBF09002D3E0FCA3E0FDA3E0FEA3E005
:101F6500FFE47B0AFAF9F812074F9002D312080032
:101F75009002D7E0C39405401F9002D3E0FCA3E094
:101F8500FDA3E0FEA3E02401FFE43EFEE43DFDE405
:101F95003CFC9002D3120800E589540F4420F589D2
:101FA50043C9A09002D3A3A3A3E0F404F58DD28E78
:051FB500D299D29C222C
:08003A003098FDC298AF992235
:082460008F993099FDC2992209
:0A244C00C2C7D2C5D2C475C2F8227F
:0824680030C0FDC2C0AFC1226B
:082470008FC130C1FDD2C12271
:1023EB0075A15575A1AAEF600543B101800353B1E7
:0723FB00FEE4F5A1F5FF224D
:03248A008FFF229F
:0A2456005392CF439330439030229D
:072478005392DF4393202281
:07247F004392204393202249
:1023A000D295122478D2947F057E00122429C295FA
:0A23B0007F027E00122429C294224D
:10243B00C295122478D2947F027E00122429D29561
:01244B00226E
:10234A00C294122478C2957F017E00122429D29465
:0F235A007F027E00122429C29412247FD2952282
:10236900C294122478D2957F017E00122429D29436
:0C2379007F027E00122429C29402247FFF
:10000600E49002E0F0D295D29412247F7F02FE8023
:100016001930951B9002E0E004F0E0D394FA400614
:1000260012243B7F01227F017E0012242980E2C236
:04003600947F002291
:1021B6009002E0EFF0C2941224787F027E0012248F
:1021C60029E49002E1F09002E0E0FF5480C413138A
:1021D60013540124FF9295EF25E0F07F017E001253
:1021E6002429D2947F017E001224299002E1E0B4D2
:1021F600070312247FC2947F017E001224299002D5
:0B220600E1E004F0E0C3940840BC22BB
:10226B009002DFEFF0E49002E1F07F02FE122429EE
:10227B0012247FE49002E0F0C2947F027E001224CD
:10228B0029D2949002E1E0FF25E0F0309503E004C1
:10229B00F09002E0E004F0E0C3940840DB9002DF32
:1022AB00E07005122369800312234A9002E1E0FFDC
:0122BB002200
:1022110043483535345F4849445F54505F56313047
:10222100302044454255470A2044454255475F44C2
:102231004154413A205365702032342032303230DB
:1022410031333A34353A3134200A006368697020F9
:10225100756E697175652069643A2530327820257B
:0A22610030327820253032780A0070
:1019C60060500184000000000000000000000000DC
:1019D6000000000000000000000000000000000001
:1019E60000000000000000000000000000000000F1
:1019F60000000000000000000000000000000000E1
:101A060000000000000000000000000000000000D0
:101A1600000000005201D400000000000000000099
:101A26000000000000000000004E01E60E037700F3
:101A3600630068002E0063006E00602801F528032D
:101A460055005300420032004900490043005F0040
:101A56004300540050005F0043004F004E00540006
:061A660052004F004C008D
:101E80001224177F057E001223D4121F257BFF7AB0
:101E9000227911120F9A7BFF7A22794C903FFCE451
:101EA00093FF7401939002D7CFF0A3EFF0903FFE21
:101EB000E493FF7401939002D9CFF0A3EFF0903F29
:101EC000FAE493FF7401939002DBCFF0A3EFF012DA
:101ED0000F9A7E007F507D007B017A017984120881
:101EE00083E49001D6F0A3F0A3F0A3F09001E5F015
:101EF000121CF59002BE7406F09001F4740EF0907E
:101F0000021D7428F012215AD2AF9002C7E060FA85
:101F1000C297D288D2A87F011223EBE4FF12248A51
:051F20001222FB80F617
:03000300022402D2
:10240200C0E0C083C082C2A89001E57401F0D0820E
:05241200D083D0E03290
:1022BC00436F6F7264696E61746520496E666F0A54
:1022CC00002530327809000A00677420696E697441
:1022DC000A0063707420783A256420793A25640AE0
:0F22EC0000726174696F3A2025662025660A002A
:101A6C00540304814F8157815F8167816F81778136
:071A7C007F8187818F8197B4
:0B20D4007B019002DD04F07F4E7E8156
:1020DF009002D8EEF0A3EFF0A3EBF0A3EAF0A3E9A0
:1020EF00F0E49002DFF01223A07FBA1221B61200A3
:1020FF00069002D8E0FF1221B61200069002D8A374
:10210F00E0FF1221B6120006E49002DEF09002DD2D
:10211F00E0FFA3E0FEC39F50299002DAE0FBA3E0AB
:10212F00FAA3E0F98E82758300120664FF1221B6BE
:10213F001200069002DFEFF070089002DEE004F06C
:0B214F0080CB12243B9002DFE0FF2257
:0E1FBA007B017A0079849002DDF07F4E7E81FB
:101FC8009002D8EEF0A3EFF0A3EBF0A3EAF0A3E9B8
:101FD800F01223A07FBA1221B61200069002D8E0B0
:101FE800FF1221B61200069002D8A3E0FF1221B614
:101FF8001200061223A07FBB1221B6120006E4903D
:1020080002DEF09002DDE0FFA3E0FEC39F502EEF5A
:1020180014B506047F0080027F0112226B9002DA59
:10202800E0FBA3E0FAA3E0F99002DEE0F582758315
:1020380000EF1206A39002DEE004F080C602243B03
:101C1700E49002D3F0900084F07B017A00798490FD
:101C270002DD04F07F407E801220DF7B017A00799D
:101C3700849002DD740EF07F407E81121FC89000F1
:101C47008BE0FE90008AE07C002400FFEC3E9001D0
:101C5700D6F0A3EFF090008DE0FE90008CE024001A
:101C6700FFEC3E9001D8F0A3EFF07BFF7A2279BC1E
:101C7700120F9AE49002D3F09002D3E0FFC3940EC0
:101C870050257BFF7A2279CD74842FF582E43400C6
:101C9700F583E0FF9002D7E4F0A3EFF0120F9A90DC
:101CA70002D3E004F080D17BFF7A2279D3120F9A16
:101CB7007FC880307401121FBA900084E030E72B90
:101CC7007409121FBA900086E07020A3E0701CA36D
:101CD700E07018A3E07014900084F07A0079841201
:0E1CE70020D47F0F7E001223D480C97F0022FC
:101CF5007BFF7A2279D5120F9A122456D296C2B258
:101D05007F077E00122429C2967F787E001224293F
:101D1500D2967F3C7E001223D4D2B2121C17121A1F
:101D2500FB9001D6E0FCA3E0FDE41201F1A804A9B3
:101D350005AA06AB07E4FFFE7D807C4512014F90A6
:101D450001DD1208009001D8E0FCA3E0FDE41201DA
:101D5500F1A804A905AA06AB07E4FFFE7D807C4532
:101D650012014F9001E11208007BFF7A2279DE9083
:101D750001D6E0FFA3E09002D7CFF0A3EFF09001EA
:101D8500D8E0FFA3E09002D9CFF0A3EFF0120F9AAD
:101D95007BFF7A2279ED9001DDE0FCA3E0FDA3E075
:101DA500FEA3E0FF9002D71208009001E1E0FCA33A
:101DB500E0FDA3E0FEA3E0FF9002DB120800020FA6
:011DC5009A83
:1022FB009001E5E0B4011E1216C3BF01117B017AF8
:10230B000179849001D4E0FCA3E0FD1213B2E490B8
:08231B0001E5F0D2A87F0022C9
:1016C3007B017A0279D79002DD7401121FC3900265
:1016D300D7E0FE20E7037F0022EE540F9002D7F0FD
:1016E300E49002D3F0A3F09002BEE0FF9002D7E0B3
:1016F300D39F4002EFF0E49002D5F09002D7E0FFD1
:101703009002D5E0FE6F7003021960EE25E0240419
:10171300F582E43403F583E0FEA3E0FF7B017A0066
:1017230079849002DD7405F0121FC8900084E07084
:1017330019FFFEFDFCA3E0F8A3E0F9A3E0FAA3E0A0
:10174300FBC31207EF7003021957900084E0FD7486
:10175300017E00A805088005C333CE33CED8F9FF38
:101763009002D3E04EF0A3E04FF0ED75F008A4240F
:1017730084F582E43401F5837401F0900084E0FF82
:1017830075F008A42485F582E43401F583EFF09025
:1017930001DCE064019000867076E0FE900085E055
:1017A3007C002400FDEC3EFCE41201F19001DDE03D
:1017B300F8A3E0F9A3E0FAA3E0FB12004612022A21
:1017C300900084E075F008A42488F582E43401F5E0
:1017D30083EEF0A3EFF0900088E0FE900087E07CBA
:1017E300002400FDEC3EFCE41201F19001E1E0F87D
:1017F300A3E0F9A3E0FAA3E0FB12004612022A9049
:101803000084E075F008A42486F582E43401807432
:10181300E0FE900085E07C002400FDEC3EFCE41239
:1018230001F19001DDE0F8A3E0F9A3E0FAA3E0FB06
:1018330012004612022A900084E075F008A4248660
:10184300F582E43401F583EEF0A3EFF0900088E035
:10185300FE900087E07C002400FDEC3EFCE41201D6
:10186300F19001E1E0F8A3E0F9A3E0FAA3E0FB12B1
:10187300004612022A900084E075F008A42488F53B
:1018830082E43401F583EEF0A3EFF0900084E0FFEF
:1018930075F008A4248AF582E43401F583E4F0A307
:1018A3007430F09001DAE06401704EEF75F008A433
:1018B3002486F582E43401F583E0FEA3E0FFD394AC
:1018C30000EE9410900084E0401375F008A4248681
:1018D300F582E43401F583E4F0A3F0801CFDC3E456
:1018E3009FFF74109EFEED75F008A42486F582E434
:1018F3003401F583EEF0A3EFF09001DBE0640170B7
:1019030053900084E0FF75F008A42488F582E43442
:1019130001F583E0FCA3E0FDD39400EC94104014A4
:10192300EF75F008A42488F582E43401F583E4F02C
:10193300A3F08020900084E0FFC3E49DFD74109C1D
:10194300FCEF75F008A42488F582E43401F583ECF8
:10195300F0A3EDF09002D5E004F00216FEE490024D
:10196300D5F09002BEE0FF9002D5E0FE6F6036A88E
:101973000674017E00088005C333CE33CED8F9FF49
:101983009002D3E05EFEA3E05F4E7011A3E075F01A
:1019930008A42484F582E43401F583E4F09002D5AD
:1019A300E004F080BD9002D3E0FFA3E09001D4CF28
:1019B300F0A3EFF0E49002D6F07A0279D61220D4A5
:0319C3007F01227F
:1023BA006461746120666C61736820726561643A55
:0A23CA0020002530327809000A00D7
:101AFB007585C0E49002D3F09002D3E0FFC3940647
:101B0B00501DEF25E0F58475868E74182FF582E451
:101B1B003403F583E58EF09002D3E004F080D97B9B
:101B2B00FF7A2379BA120F9AE49002D3F09002D382
:101B3B00E0FFC3940650257BFF7A2379CC74182FD2
:101B4B00F582E43403F583E0FF9002D7E4F0A3EFD2
:101B5B00F0120F9A9002D3E004F080D17BFF7A232E
:101B6B0079D2120F9A900318E0FFB4FF07A3E0B4E9
:101B7B00FF028013EF30E70F9001DA7401F090034E
:101B8B0018E0547FF08005E49001DAF090031AE03E
:101B9B00FFB4FF07A3E0B4FF028013EF30E70F9011
:101BAB0001DB7401F090031AE0547FF08005E490A0
:101BBB0001DBF090031DE0640A60149001D6E07025
:101BCB0002A3E070329001D8E07002A3E07028907D
:101BDB000318E0FEA3E07C002400FFEC3E9001D64E
:101BEB00F0A3EFF090031AE0FEA3E02400FFEC3E1D
:101BFB009001D8F0A3EFF090031CE0B401047F0137
:0C1C0B0080027F009001DCEFF07F0122DE
:101DC6001201010000000040861AE3E5000001024E
:101DD6000001040309040922A10209421500250194
:101DE60075019501810295078101750809519501D3
:101DF600810205012600107510550E651109303552
:101E0600004679088102260010464C0509318102F8
:101E1600050D09488102C0050D0904A101850105CA
:101E26000D27FFFF00007510950109568102095420
:101E36001500257F950175088102850209559501D2
:101E4600250AB10285030600FF09C5150026FF0015
:101E56007508960001B102C0090222000101008046
:101E6600200904000001030000000921000100010F
:0A1E7600220000070582034000016E
:101A83004102C70041026600420264000042022292
:101A930000004102BE004102CC0060540269000014
:101AA3000000000000000000000000000000000033
:101AB3000000000000000000000000000000000023
:101AC3000000000000000000000000000000000013
:101AD3000000000000000000000000000000000003
:101AE30000000000000000000000000000000000F3
:071AF30000004202CA0000DE
:10215A00E5A1645470559002BEE070037406F090D5
:10216A0002BEE0D3940A4003740AF0C2EAE4F5E23C
:10217A0075D18053D1FB53E2BF75E50075E4427512
:10218A00EB0475D41275ED0075EC0053EAF375DCB7
:10219A0002F5D5F5E343E22943D10175D8FF75E18C
:0C21AA0007D2EA9002C7F0900266F02213
:102385009002DCEDF0FF7E0078427C007D011206B4
:0B239500259002DCE0F5D553D4FC22BB
:030043000208AF01
:1008AF00C0E0C0F0C083C082C0D075D01020D90383
:1008BF00020EE1E5D9543F7003020ED224E070031B
:1008CF00020D2624F0601A240E6003020EDF75D588
:1008DF0000E5D454FC4402F5D4900266E4F0020E15
:1008EF00DFE5DC54FC4402F5DCAFDB9002D1E4F031
:1008FF00A3EFF09002CCE4F09002D1E07004A3E0FB
:10090F0064086003020CEE900007E0FF900267E4BA
:10091F00F0A3EFF0E07F00FE900267F0A3EFF090FE
:10092F000006E0FDEDFF900267EEF0A3EFF09002FE
:10093F00D1E4F0A3F0900001E09002BDF090000030
:10094F00E0546060449002BDE024FE7003020CF698
:10095F00147003020CF624FA24FD4003020CF62453
:10096F000B7023900002E0FF64026004EFB40313E6
:10097F00900000EFF09002BEE0900001F09002D1E5
:10098F00020CDD020CEE020CEE9002BDE0B40B0087
:10099F004003020CEC9009ABF8282873020CC30239
:1009AF000C0E020CEC020C49020CEC020BCC0209EF
:1009BF00CC020CEC020BD8020BFD020CF6900003DC
:1009CF00E024FE6071147003020AEE24E17003024A
:1009DF000A9524216003020B4478247C027D017B5D
:1009EF00FF7A1D79C67E007F12120625900264E001
:1009FF007002A3E0700A900222E07002A3E0601C74
:100A0F00900264E0FCA3E090022CF0ECA3F09002C3
:100A1F0022E0FCA3E090022EF0ECA3F09002CD7444
:100A2F0001F0A37402F0A37424F09002D1E4F0A3B8
:100A3F007412F0020B4C78247C027D017BFF7A1E2E
:100A4F00795E7E007F221206259002BEE075F0418E
:100A5F00A42441FEE435F0900220F0A3CEF09002E2
:100A6F0020E0FCA3E090023DF0ECA3F09002CD74E7
:100A7F0001F0A37402F0A37424F09002D1E4F0A368
:100A8F007422F0020B4C78247C027D017BFF7A1ECE
:100A9F00791D7E007F08120625782C7C027D017B54
:100AAF00FF7A1D79DC7E007F381206259002D07404
:100ABF0038F09002BEE09002C8F09002CD7401F0C1
:100ACF00A37402F0A37424F0900220E0FFA3E0903F
:100ADF0002D1CFF0A3EFF09002CC7401F0805E90C2
:100AEF000002E0603724FE60160470499002CD7456
:100AFF0001F0A37401F0A374E6F09001F48011905B
:100B0F0002CD7401F0A37401F0A374F5F090021DEF
:100B1F00E0FF9002D1E4F0A3EFF080219002CD74BA
:100B2F00FFF0A3741DF0A374D8F09002D1E4F0A3EA
:100B3F007404F080089002D174FFF0A3F09002D1FA
:100B4F00E0FEA3E0FFD3900268E09F900267E09E73
:100B5F004005EEF0A3EFF0EFF47002EEF470030235
:100B6F000CF6900267E0FEA3E0FFC39440EE940002
:100B7F0040067E007F4080009002D1EEF0A3EFF0A0
:100B8F009002D1E0FEA3E0FF78007C007D0190028F
:100B9F00CDE0FBA3E0FAA3E0F91206259002D1E025
:100BAF00FEA3E0FFC3900268E09FF0900267E09E13
:100BBF00F09002CEEE8FF01206C5020CF6900002F6
:100BCF00E0FF900267E4020CE690021EE090000046
:100BDF00F0C3900268E09401900267E09400500324
:100BEF00020CF69002D1E4F0A304F0020CF6900090
:100BFF0002E090021EF09002C77401F0020CF69012
:100C0F000000E0541F6402702E900004E024FE6088
:100C1F001D2481600E14701CE5D454BC4402F5D41D
:100C2F00020CF6E5D254BC4402F5D2020CF653D4B2
:100C3F0073020CF6020CEE020CEE900000E0541F53
:100C4F00FD701F900003E0FE900002E0FBEB6401DB
:100C5F004E700D901E659330E503020CF6020CEEFC
:100C6F00807DED6402704B900003E0FE900002E087
:100C7F00FDED4E703B900005E0FE900004E0FDEDB1
:100C8F00FFEE702AEF24FE60112481601714701E8E
:100C9F00E5D454BF4403F5D4804DE5D4547F440CC0
:100CAF00F5D48043E5D254BF4403F5D28039802F69
:100CBF00802D802B900000E4F0A3F0900267E0FEFF
:100CCF00A3E0FFC39402EE94009002D14008E4F039
:100CDF00A37402F08011EEF0A3EFF0800A80009071
:100CEF0002D174FFF0A3F09002D1E0FEA3E0FFBEAB
:100CFF00FF0FBFFF0C9002BD74FFF075DCCF020E2B
:100D0F00DFD3EF9440EE940050048FDD800375DD48
:100D1F000075DCC0020EDF9002BDE024FB70030201
:100D2F000EBB146003020ECA900267E0FEA3E0FF41
:100D3F00C39440EE9400400A7C007D407E007F40CB
:100D4F0080009002D1EEF0A3EFF09002CCE07003A0
:100D5F00020E729002D1A3E090021FF09002C9E43C
:100D6F00F09002C8E07003020E369002D0E0FFC38D
:100D7F0074419FFE90021FE0C39E405AEFFD7441E5
:100D8F009DFDE49400FCCEECCEEDC0E074DC2FF9B9
:100D9F00E4341DFA7BFFE9C0E09002C9E02400F9BA
:100DAF00E43400C8E9C8FC7D01D0E0F9D0E0FF12BF
:100DBF0006259002D0E0FFC374419FFF9002C9E067
:100DCF002FF090021FE0C39FF09002C8E014F09044
:100DDF0002D0E4F0803F90021FE0FF7E009002D02F
:100DEF00E024DCF9E4341DFA7BFFE9C0E09002C98E
:100DFF00E02400F9E43400C8E9C8FC7D01D0E0F933
:100E0F0012062590021FE0FF9002D0E02FF0900213
:100E1F001FE4F080129002C8E06003020D70900290
:100E2F00D07408F0020D7090021FE0FF60627E0028
:100E3F009002D0E0241DF9E4341EFA7BFFE9C0E0F4
:100E4F009002C9E02400F9E43400C8E9C8FC7D0130
:100E5F00D0E0F912062590021FE0FF9002D0E02F9C
:100E6F00F0802D9002D1E0FEA3E0FF78007C007DA2
:100E7F00019002CDE0FBA3E0FAA3E0F91206259062
:100E8F0002D1E0FEA3E0FF9002CEEE8FF01206C576
:100E9F009002D1E0FEA3E0FFC3900268E09FF090C4
:100EAF000267E09EF08FDD63DC408024900267A331
:100EBF00E0FFE5E354804FF5E3800375DD0075DC5B
:100ECF0002800DAFDB9002D1E4F0A3EFF063DC8082
:100EDF00C2D930D8179002C7E4F0900266F075DCE3
:100EEF000275D412F5E3C2DAC2D9C2D830DA23C2FE
:100EFF00DAE5DA30E21FE5A220E7FB75A15575A10F
:100F0F00AA75A98143870275A15575A1AA75A90074
:100F1F00800375D8FFD0D0D082D083D0F0D0E0320C
:1013B2009002D3EBF0A3EAF0A3E9F0A3ECF0A3EDE3
:1013C200F0E49002D9F0A3F0A3F0ED4C700C90027F
:1013D200CAE07002A3E07002FF22E5A16454600338
:1013E2000216C090026904F09002BEE0FF75F00898
:1013F200A4246AF582E43402F5837401F0EF75F0F7
:1014020008A4246BF582E43402F5837401F0E490BD
:1014120002D9F09002D8F09002BEE0FF9002D8E02C
:10142200FE6F7003021581C8EEC874017E00088049
:1014320005C333CE33CED8F9FF9002D6E05EFCA3CB
:10144200E05F4C700F9002CAE05EFEA3E05F4E7058
:10145200030215789002D8E0FF74017E00C8EFC83D
:10146200088005C333CE33CED8F9FF9002D6E05EB2
:10147200FEA3E05F4E70069002DAE004F09002D321
:10148200E0FBA3E0FAA3E0F99002D8E0FF75F008D0
:10149200A4F58285F083120664FE9002D9E075F00D
:1014A20008A4246AF582E43402F583EEF0EF75F0C5
:1014B20008A4FFE92FF9EA35F0FA90000112066458
:1014C200FF9002D9E0FE75F008A4246BF582E434A3
:1014D20002F583EFF09000021206DBFFEE75F008D2
:1014E200A4246CF582E43402F583EFF0900002123A
:1014F20006DBE5F0FF9002D9E0FE75F008A4246D4A
:10150200F582E43402F583EFF09000041206DBFF6B
:10151200EE75F008A4246EF582E43402F583EFF050
:101522009000041206DBE5F0FF9002D9E0FE75F0B0
:1015320008A4246FF582E43402F583EFF0900006EC
:101542001206DBFFEE75F008A42470F582E4340283
:10155200F583EFF09000061206DBE5F0FF9002D96A
:10156200E075F008A42471F582E43402F583EFF00B
:101572009002D9E004F09002D8E004F0021419902D
:1015820002D9E0FF9002DBF09002D6E0FDA3E090EA
:1015920002CACDF0A3EDF0EF70059002D904F090ED
:1015A20002D9E09002D8F09002BEE0FF9002D8E0AB
:1015B2006F7003021642E0FF75F008A4246AF582F8
:1015C200E43402F583E4F0EF75F008A4246BF582AD
:1015D200E43402F583E4F0EF75F008A4246CF5829C
:1015E200E43402F583E4F0EF75F008A4246DF5828B
:1015F200E43402F583E4F0EF75F008A4246EF5827A
:10160200E43402F583E4F0EF75F008A4246FF58268
:10161200E43402F583E4F0EF75F008A42470F58257
:10162200E43402F583E4F0EF75F008A42471F58246
:10163200E43402F583E4F09002D8E004F00215A944
:101642009002DBE0FF70047F0180009002BEE0FEAA
:1016520075F008A4246CF582E43402F583EFF0EE11
:1016620075F008A424049002D8F0900266E070FAA3
:101672009002667401F0FB7A0279699002D8E0FF69
:10168200D3944040047D408003CDEFCD122385905A
:1016920002D8E0D39440401B900266E070FA9002B8
:1016A200667401F0FB7A0279A99002D8E024C0FDA9
:1016B2001223859002DAE06005E4F00214107F0143
:0116C2002205
:10004600EC4D6011E8497017ED33EC3304600DE4B4
:10005600FCFFFEFD22E933E8330470F80202961233
:10006600026158046009E4CC248150062850090234
:1000760002A028400302029DC0E0EB4A7044B9800A
:1000860006D0E0FB02028CEF4E701CBD8008EBFF31
:10009600EAFEE9FD80EBE98DF0A4FEE5F002012F12
:1000A600E9CDF9EAFEEBFFEF89F0A4FCE5F0CE8995
:1000B600F0A42EFFE435F0CD89F0A42DFEE435F052
:1000C6008067EF4E7005BD80D780C3EF8BF0A4AC80
:1000D600F0EE8BF0A42CFCE435F0F8EF8AF0A42CBB
:1000E600E5F038FCE433CB8DF0A42CFCE5F03BF8CE
:1000F600EE8AF0A42CFCE5F038F8E433CF89F0A4BE
:100106002CFCE5F038CF3400CE89F0A42FFFE5F0C3
:100116003EFEE433C98DF0A42EFEE5F039CD8AF01B
:10012600A42FFFE5F03EFEE43DFD33D0E0FB500793
:100136000BBB000F0202A0EC2CFCEF33FFEE33FEEC
:06014600ED33FD0202781A
:10014C000202A0EC5D046005E859047003020296FB
:10015C00120261580460F6EC4860F2EC7004FDFE8B
:10016C00FF22C860DB2481C85009C3986002500686
:10017C0002029D9850CAF582E9294B4A7005AB8260
:10018C0002028C75F0007C1A7880C3EF9BEE9AED1E
:10019C0099400DC3EF9BFFEE9AFEED99FDE842F0FE
:1001AC00DC23ACF0D0E0FFD0E0FED0E0FDAB822051
:1001BC00E7101BEB60BAEC2CFCEF33FFEE33FEEDDB
:1001CC0033FD020278E803F830E705C0F075F00063
:1001DC00EF2FFFEE33FEED33FD40B830E7C280AABF
:1001EC0075F020800E75F010800575F0087D007E8E
:1001FC00007F003392D530D5031207E1EC33401069
:10020C00EF33FFEE33FEED33FDEC33FCD5F0ED2296
:0E021C00E5F0247EA2D513CC92E7CDCEFF22D2
:10022A00EDD2E7CD33EC3392D524814006E4FFFECC
:10023A00FDFC22FCE4CFCECDCC24E0501174FF802B
:10024A00EDC3CC13CCCD13CDCE13CECF13CF0470C8
:07025A00F030D5DE0207E1E0
:100F2F00E50824D7F582E43402F583E00508229022
:100F3F0002D43007039002D7E475F00112083D0286
:100F4F00064B2000E97F2ED2008018EF540F24901B
:100F5F00D43440D4FF30040BEF24BFB41A00500335
:100F6F002461FFE50960021509050CE50C70020507
:100F7F000B30070E9002D4E475F00112083DEF021A
:100F8F0006910223237403D2078003E4C207F508F6
:100F9F009002D4120854E4F509F50BF50CE509603D
:100FAF00077F20120F7280F5750AFFC201C200C2BF
:100FBF0002C203C205C206C208120F3EFF700D30F7
:100FCF0007057F00120F83AF0CAE0B22B4255FC253
:100FDF00D5C204120F3EFF24D0B40A00501A75F088
:100FEF000A780930D50508B6FF0106C6A426F620F3
:100FFF00D5047002D20380D924CFB41A00EF500465
:10100F00C2E5D204021275D20180C6D20080C0D2CE
:10101F000280BCD2D580BAD20580B47F20120F7265
:10102F002002077401B5090040F1120F2FFF120FB4
:10103F0072020FACD208D2068095120F2FFB120F3F
:10104F002FFA120F2FF94A4B700679737A137BFF21
:10105F0020022EE509602A7E008E8275830012061B
:10106F006460060EEE650A70F0C2D5EBC0E0EAC010
:10107F00E0E9C0E0EE1212D6D0E0F9D0E0FAD0E00D
:10108F00FB12064BFF60AAEBC0E0EAC0E0E9C0E04C
:10109F00120F72D0E02401F9D0E03400FAD0E0FB57
:1010AF00E50A0460DCD50AD98087D20280A2121229
:1010BF00B860F7E50A7001041202ABA90A600DE5EA
:1010CF000A600914F50A121360EF60F3EA30E702C1
:1010DF00F404C3995079EAF4250A0430E701E404D3
:1010EF00F50A800D1212B860C1EA050A250A12022C
:1010FF00ABEA900303F030E701E4250A04D50A04B4
:10110F00200501141212D6E4C0E0121360900303FD
:10111F00E0601320E70714F0120F5A802204F0D07A
:10112F00E014C0E07F00120F5AE50A6007120F515A
:10113F00150A800B300503120F51D0E0020FACD00F
:10114F00E00480C41212B8609EE50A041202AB904C
:10115F000303EAF0E50A20050260010424041212D9
:01116F00D6A9
:1011700074FF04C0E0121360120F5AE50A20050242
:101180006003120F51D0E0B50AE87F45120F64905A
:101190000303E07F2B30E7047F2DF404C0E0120F3F
:1011A00072D0E075F00A84C0F0120F5BD0E0120F2D
:1011B0005B020FAC791080027908C206C208800871
:1011C000D2D5790A8004790AC2D5E50A047002F5FD
:1011D0000AE4FAFDFEFF120F2FFC7B082001131218
:1011E0000F2FFD7B1030000A120F2FFE120F2FFF62
:1011F0007B20EC3382D592D55013C3E43000069F98
:10120000FFE49EFEE42001039DFDE49CFCE4CBF89A
:10121000C201EC700CCFCECDCCE824F8F870F3808E
:1012200017C3EF33FFEE33FEED33FDEC33FCEB334E
:10123000FB994002FB0FD8E9EB300105F8D0E0C480
:1012400048B201C0E00AEC4D4E4F78207B0070C2DE
:10125000EAB50A0040BCC0E01212D8D0F0D0E020BD
:101260000104C4C0E0C4B201C0F0120F5BD0F0D5DD
:10127000F0EB020FAC12085D10495311B458101A6C
:101280004C10164211B84F11C04411C049102F43E1
:1012900011C65510F34611534510BD471393501016
:1012A0001E2D10222E10452B102623104320137CB8
:1012B0002A0FDE480000103DE50AB4FF03750A0658
:1012C000120F2FFC120F2FFD120F2FFE120F2FFFE8
:1012D0009002FC0202E8790AA2D520031430050925
:1012E000B910020404B9080104A2D5200602500175
:1012F000042002689202B509005034C0E07F20301B
:1013000003197F30A20272067205500F12132FC20A
:1013100002C206C205C2087F30800F300503E9C053
:10132000E0120F72300503D0E0F9D0E0B509CC30FF
:1013300005177F30B9100C120F727F583004077FE9
:10134000788003B90803120F723002057F2D020F57
:10135000727F202008F87F2B2006F322920280CF94
:101360007F00B40700500B24FCF582E43402F583BF
:10137000E0FF22286E756C6C2900D201120F2F300D
:1013800001F8C201780930D50108F6020FDE2D50B0
:10139000434958120F2F2403B405004001E4901371
:1013A0008E93120F63743A120F63D203750904020D
:0213B00011B476
:10026100E9D2E7C933E833F892D5EDD2E7CD33ECE3
:0702710033FC5002B2D5225C
:10027800EC30E7100FBF000C0EBE00080DBD0004E7
:100288000BEB6014A2D5EB13FCED92E7FD2274FF93
:10029800FCFDFEFF22E480F8A2D574FF13FC7D80EC
:0302A800E480EF00
:1002AB00F920E73624F950037907E4F42402FBE53F
:1002BB0082158270021583DBF6E024FB501BE9608C
:1002CB0014E4F0E582158270021583E004F0B40AA1
:0D02DB0008E4F0D9EE7401F00A22C2D52229
:1002E800ED33EC3392D5FA602AB4FF33EDC2E77BE5
:1002F800FF60067A03790DE4227A03791620D50483
:100308007A037911224E614E002B494E46002D4941
:100318004E4600E47A08F0A3DAFC7B00740722C09A
:1003280083C082ECC0E0EDC0E0EEC0E0EFC0E0EAE0
:1003380075F010A4CAABF075F04DA42BFBE435F0B2
:10034800FCEA2410FAEB34C5FBEC34D9FCEDC2E727
:10035800FF75F056A4F42411C5F0F434C58FF0A449
:100368002AE5F03BE43CF020E714120515D0E0FF45
:10037800D0E0FED0E0FDD0E0FC12014F8014F40480
:10038800120515D0E0FFD0E0FED0E0FDD0E0FC1271
:100398000046D082D083E0FAEDD2E7CD33EC3324A7
:1003A80082FBE4C3CF33CFCE33CECD33CD33DBF3B3
:1003B8007B0775F00A846004F0A31B0AE5F0F0A33C
:1003C8008FF0740AA4FFACF08EF0740AA42CFEAC73
:1003D800F050010C8DF0740AA42CFDE435F0F0A364
:0503E800DBDE740722BA
:1003ED00020296E86480F8E933E83360110460F0A6
:1003FD00ED33EC337009E8FCE9FDEAFEEBFF220476
:10040D0060DED3EB9FEA9EE99DE8C2E78CF0C2F770
:10041D0095F0400CE8CCF8E9CDF9EACEFAEBCFFB3C
:10042D0012026185D0F05804700320D5B3E8047032
:10043D00075002B2D50202A092D5EC0460F7E4CCCD
:10044D00C0E0C398F8603B94186008400DD0E0FB05
:10045D00020278E4FBFAC9FC8028E830E406E4C91E
:10046D00FBE4CAFCE830E305E4C9CACBFCE8540759
:10047D006010F8C3E913F9EA13FAEB13FBEC13FC64
:10048D00D8F130F52FC3E49CFCEF9BFFEE9AFEED07
:10049D0099FDD0E0FBEF4E4D4C701222DB030202B2
:1004AD009DEC2CFCEF33FFEE33FEED33FDED30E72D
:1004BD00EB020278EF2BFFEE3AFEED39FDD0E0FBBB
:1004CD0050130BBB00030202A0ED13FDEE13FEEF64
:0804DD0013FFEC13FC0202788E
:1004E5003F8000004120000042C80000447A00001F
:1004F500461C400047C35000497424004B189680A1
:100505004CBEBC205A0E1BCA6753C21C749DC5AE97
:10051500FB60065407601C2323120543EB54386027
:100525000912052F12053E120046ECF8EDF9EEFA18
:10053500EFCB22EB12053E80F1543803241C9004C6
:10054500E5FE93FC0EEE93FD0EEE930ECE93FF2289
:0300000002204893
:0C204800787FE4F6D8FD75812102208F1E
:10055500E709F608DFFA8046E709F208DFFA803E88
:1005650088828C83E709F0A3DFFA8032E309F60875
:10057500DFFA8078E309F208DFFA807088828C83DD
:10058500E309F0A3DFFA806489828A83E0A3F60891
:10059500DFFA805889828A83E0A3F208DFFA804C6B
:1005A50080D280FA80C680D4806980F28033801042
:1005B50080A680EA809A80A880DA80E280CA8033AB
:1005C50089828A83ECFAE493A3C8C582C8CCC58323
:1005D500CCF0A3C8C582C8CCC583CCDFE9DEE780F3
:1005E5000D89828A83E493A3F608DFF9ECFAA9F072
:1005F500EDFB2289828A83ECFAE0A3C8C582C8CCC8
:10060500C583CCF0A3C8C582C8CCC583CCDFEADEE0
:10061500E880DB89828A83E493A3F208DFF980CC42
:1006250088F0EF60010E4E60C388F0ED2402B4043B
:100635000050B9F582EB2402B4040050AF232345E2
:0606450082239005A5735D
:10064B00BB010689828A83E0225002E722BBFE02AD
:09065B00E32289828A83E49322E0
:10066400BB010CE58229F582E5833AF583E022504B
:1006740006E92582F8E622BBFE06E92582F8E22295
:0D068400E58229F582E5833AF583E49322AF
:10069100BB010689828A83F0225002F722BBFE0148
:0206A100F32242
:1006A300F8BB010DE58229F582E5833AF583E8F08D
:1006B300225006E92582C8F622BBFE05E92582C839
:0206C300F22221
:1006C500C5F0F8A3E028F0C5F0F8E58215827002C0
:0606D5001583E038F0225D
:1006DB00BB0110E58229F582E5833AF583E0F5F05D
:1006EB00A3E0225009E92582F886F008E622BBFE3A
:1006FB000AE92582F8E2F5F008E222E5832AF58380
:08070B00E993F5F0A3E9932244
:1007130075F008758200EF2FFFEE33FECD33CDCC9D
:1007230033CCC58233C5829BED9AEC99E582984020
:100733000CF582EE9BFEED9AFDEC99FC0FD5F0D6FD
:10074300E4CEFBE4CDFAE4CCF9A88222B800C1B927
:100753000059BA002DEC8BF084CFCECDFCE5F0CB65
:10076300F97818EF2FFFEE33FEED33FDEC33FCEB9E
:1007730033FB10D703994004EB99FB0FD8E5E4F959
:10078300FA227818EF2FFFEE33FEED33FDEC33FC46
:10079300C933C910D7059BE99A4007EC9BFCE99A3A
:1007A300F90FD8E0E4C9FAE4CCFB2275F010EF2F7F
:1007B300FFEE33FEED33FDCC33CCC833C810D7077F
:1007C3009BEC9AE899400AED9BFDEC9AFCE899F8BA
:0E07D3000FD5F0DAE4CDFBE4CCFAE4C8F9224D
:0E07E100C3E49FFFE49EFEE49DFDE49CFC2229
:1007EF00EB9FF5F0EA9E42F0E99D42F0E89C45F060
:0107FF0022D7
:0C080000ECF0A3EDF0A3EEF0A3EFF0226B
:10080C00A8828583F0D083D0821208231208231289
:10081C000823120823E473E493A3C583C5F0C583AE
:10082C00C8C582C8F0A3C583C5F0C583C8C582C836
:01083C002299
:10083D00F8E0FBA3A3E0F925F0F0E5821582700244
:07084D001583E0FA38F022E8
:09085400EBF0A3EAF0A3E9F022A5
:10085D00D083D082F8E4937012740193700DA3A32A
:10086D0093F8740193F5828883E47374029368603E
:06087D00EFA3A3A380DF3E
:10232300EFB40A07740D12232E740A309811A8997A
:10233300B8130CC2983098FDA899C298B811F6301A
:0723430099FDC299F59922F2
:10088300EF4E6012EF60010EEDBB010B89828A838C
:10089300F0A3DFFCDEFA2289F05007F709DFFCA999
:0C08A300F022BBFEFCF309DFFCA9F022F0
:10205400021E80E493A3F8E493A34003F68001F204
:1020640008DFF48029E493A3F85407240CC8C3338D
:10207400C4540F4420C8834004F456800146F6DF5C
:10208400E4800B01020408102040809019C6E47E0D
:10209400019360BCA3FF543F30E509541FFEE49351
:1020A400A360010ECF54C025E060A840B8E493A318
:1020B400FAE493A3F8E493A3C8C582C8CAC583CA43
:1020C400F0A3C8C582C8CAC583CADFE9DEE780BEFB
:011AFA0000EB
:00000001FF
